:100000000C9462000C9436040C9463040C948A00E3
:100010000C948A000C948A000C948A000C948A0038
:100020000C948A000C948A000C948A000C948A0028
:100030000C948A000C948A000C948A000C948A0018
:100040000C9401070C948A000C94E9040C948A0027
:100050000C948A000C948A000C948A000C948A00F8
:100060000C948A000C948A000000000024002700F1
:100070002A0000000000250028002B0000000000DE
:1000800023002600290004040404040404040202DA
:100090000202020203030303030301020408102007
:1000A0004080010204081020010204081020000012
:1000B0000007000201000003040600000000000029
:1000C0000000A20511241FBECFEFD4E0DEBFCDBFDC
:1000D00011E0A0E0B1E0E2E7F0E102C005900D928E
:1000E000A236B107D9F712E0A2E6B1E001C01D9235
:1000F000A931B107E1F710E0C4ECD0E004C02297C9
:10010000FE010E943308C23CD107C9F70E940703D1
:100110000C9437080C940000AF92BF92CF92DF92FC
:10012000EF92FF920F931F93809170019091710154
:10013000892B09F4D1C01092710110927001809145
:10014000620190916301885E93402CF428EE33E0C5
:1001500040E050E015C08091620190916301815DA3
:1001600097402CF020ED37E040E050E009C080914E
:100170006201909163019C01442737FD4095542F03
:1001800000D000D08FEF91E0A0E0B0E0EDB7FEB777
:1001900081839283A383B483CA01B90128EE33E03B
:1001A00040E050E0F0EDEF2EF7E0FF2E012D112D95
:1001B000AA24BB2465010E94CA037093670160935F
:1001C00066010F900F900F900F906115710549F423
:1001D000809164019091650190936701809366011D
:1001E00004C07093650160936401809166019091F1
:1001F0006701F1E08F3F9F0749F48091640190917E
:100200006501909367018093660104C09093650136
:1002100080936401209166013091670180915301C0
:100220009091540182179307E4F48091430161E0B7
:100230000E942E036FEF71E080916601909167013B
:10024000681B790B80913F010E94900480914501C9
:1002500060E00E942E038091410161E00E942E0324
:100260001EC0809155019091560128173907DCF482
:100270008091430160E00E942E0380913F0161E084
:100280000E942E038091450161E00E942E0360913F
:10029000660170916701809141010E9490048091F4
:1002A0004B0160E017C080914B0161E00E942E037A
:1002B0008091430160E00E942E038091450160E03F
:1002C0000E942E0380913F0161E00E942E038091E5
:1002D000410161E00E942E038091740190917501AB
:1002E000892B09F4B2C010927501109274018091AB
:1002F000680190916901885E93402CF428EE33E008
:1003000040E050E015C08091680190916901815DE5
:1003100097402CF020ED37E040E050E009C080919C
:100320006801909169019C01442737FD4095542F45
:1003300000D000D08FEF91E0A0E0B0E0EDB7FEB7C5
:1003400081839283A383B483CA01B90128EE33E089
:1003500040E050E0E0EDEE2EE7E0FE2E012D112D05
:10036000AA24BB2465010E94CA0370936D016093A7
:100370006C010F900F900F900F906115710549F46B
:1003800080916A0190916B0190936D0180936C0153
:1003900004C070936B0160936A0180916C0190912D
:1003A0006D01F1E08F3F9F0749F480916A019091C0
:1003B0006B0190936D0180936C0104C090936B016D
:1003C00080936A0160916C0170916D01809153017D
:1003D000909154018617970764F4681B790B8091FC
:1003E00047010E9490048091490160E00E942E0321
:1003F0001AC0809155019091560168177907B4F49D
:100400008091470160E00E942E0360915501709138
:10041000560180916C0190916D01681B790B809160
:1004200049010E94900480914D010CC080914D01C2
:1004300061E00E942E038091470160E00E942E033C
:100440008091490160E00E942E038EEF91E060E010
:1004500071E00E94100660916601709167018EEF55
:1004600091E00E94F9068EEF91E06DE071E00E944C
:1004700010068EEF91E066E171E00E941006609137
:100480006201709163018EEF91E00E94F9068EEF98
:1004900091E06DE071E00E9410068EEF91E064E261
:1004A00071E00E94100660916C0170916D018EEFF9
:1004B00091E00E94F9068EEF91E06DE071E00E94FC
:1004C00010068EEF91E061E371E00E9410066091EA
:1004D0006801709169018EEF91E00E94F9068EEF3C
:1004E00091E06DE071E00E942F061F910F91FF9047
:1004F000EF90DF90CF90BF90AF9008958091510121
:100500000E947B03019739F40E944907709373019D
:100510006093720108950E94490720917201309101
:100520007301621B730B709369016093680181E032
:1005300090E09093750180937401089580914F012C
:100540000E947B03019739F40E94490770936F0161
:1005500060936E0108950E94490720916E013091C9
:100560006F01621B730B709363016093620181E002
:1005700090E0909371018093700108958EEF91E067
:1005800040E855E260E070E00E94260580913F015E
:1005900061E00E940E038091410161E00E940E0320
:1005A0008091470161E00E940E038091490161E062
:1005B0000E940E038091430161E00E940E0380912E
:1005C000450161E00E940E0380914B0161E00E94B1
:1005D0000E0380914D0161E00E940E0380914F0156
:1005E00060E00E940E038091510160E00E940E03C2
:1005F00080E06EE972E041E050E00E94130481E087
:100600006EE772E041E050E00E94130408950E94FA
:1006100074070E94BE020E948C00FDCF282F30E09C
:10062000C90186569F4FFC0194912A573F4FF9010B
:100630008491882391F0E82FF0E0EE0FFF1FE85936
:10064000FF4FA591B491662329F48C91909589234D
:100650008C9308958C91892B8C930895482F50E0AA
:10066000CA0182559F4FFC012491CA0186569F4FB3
:10067000FC0194914A575F4FFA0134913323D1F131
:10068000222331F1233021F4809180008F7705C03F
:10069000243031F4809180008F7D8093800018C0D9
:1006A000213019F484B58F7704C0223021F484B549
:1006B0008F7D84BD0DC0263021F48091B0008F77EE
:1006C00005C0273029F48091B0008F7D8093B00061
:1006D000E32FF0E0EE0FFF1FEE58FF4FA591B4910E
:1006E000662329F48C91909589238C9308958C919D
:1006F000892B8C930895682F70E0CB0182559F4F12
:10070000FC012491CB0186569F4FFC0144916A570E
:100710007F4FFB019491992319F420E030E038C019
:10072000222331F1233021F4809180008F7705C09E
:10073000243031F4809180008F7D8093800018C038
:10074000213019F484B58F7704C0223021F484B5A8
:100750008F7D84BD0DC0263021F48091B0008F774D
:1007600005C0273029F48091B0008F7D8093B000C0
:10077000892F90E0880F991F84589F4FFC01A59105
:10078000B4918C9120E030E0842311F021E030E03E
:10079000C90108952F923F924F925F926F927F927C
:1007A0008F929F92AF92BF92CF92DF92EF92FF9281
:1007B0000F931F93DF93CF93CDB7DEB73B014C016F
:1007C00019012A016D897E898F89988D6A197B09A3
:1007D0008C099D09621A730A840A950AA40193017F
:1007E0000E94AE07E218F30804091509A801970151
:1007F0000E9402082A0D3B1D4C1D5D1DB901CA0156
:10080000CF91DF911F910F91FF90EF90DF90CF90EC
:10081000BF90AF909F908F907F906F905F904F9020
:100820003F902F900895823000F5E82FF0E0EE0F12
:10083000FF1FEA58FE4F71836083882319F08130CF
:10084000A1F408C0809169008C7F842B809369009B
:10085000E89A089580916900440F551F440F551F71
:10086000837F842B80936900E99A08951F920F92E9
:100870000FB60F9211242F933F934F935F936F9373
:100880007F938F939F93AF93BF93EF93FF93809149
:10089000760190917701892B29F0E0917601F09112
:1008A00077010995FF91EF91BF91AF919F918F9142
:1008B0007F916F915F914F913F912F910F900FBE5C
:1008C0000F901F9018951F920F920FB60F92112440
:1008D0002F933F934F935F936F937F938F939F9348
:1008E000AF93BF93EF93FF9380917801909179013B
:1008F000892B29F0E0917801F09179010995FF9118
:10090000EF91BF91AF919F918F917F916F915F9187
:100910004F913F912F910F900FBE0F901F90189500
:100920001F93CF93DF93182FEB0161E00E940E031A
:10093000E12FF0E0E255FF4F8491833051F4809134
:100940008000806880938000D0938900C0938800E5
:100950003CC0843051F4809180008062809380009C
:10096000D0938B00C0938A0030C0813039F4209737
:1009700029F184B5806884BDC7BD27C0823039F4B1
:100980002097E1F084B5806284BDC8BD1EC086306A
:1009900041F48091B00080688093B000C093B300B0
:1009A00014C0873041F48091B00080628093B00021
:1009B000C093B4000AC0C038D1051CF4812F60E098
:1009C00002C0812F61E00E942E03DF91CF911F9121
:1009D00008951F920F920FB60F9211242F933F93F9
:1009E0004F935F936F937F938F939F93AF93BF9337
:1009F000EF93FF934091C600E091FA01F091FB0163
:100A0000CF01019660E870E00E94CD079C018091C3
:100A1000FC019091FD012817390739F0E658FE4F87
:100A200040833093FB012093FA01FF91EF91BF9136
:100A3000AF919F918F917F916F915F914F913F9176
:100A40002F910F900FBE0F901F901895AF92BF92ED
:100A5000CF92DF92EF92FF920F931F93CF93DF938A
:100A60006C017A018B01DC011496AD90BC90159756
:100A7000CB01BA0122E030E040E050E00E940208E1
:100A8000205C3D4B404F5F4FCA01B901A80197015F
:100A90000E940208C901DA010197A109B109292FB1
:100AA0003A2F4B2F552747FD5A950196A11DB11D91
:100AB000E5012883E601EE81FF8181508083EA858C
:100AC000FB85208141E050E0CA010E8402C0880FFE
:100AD000991F0A94E2F7282B2083EA85FB85208161
:100AE000CA010F8402C0880F991F0A94E2F7282BCD
:100AF0002083EA85FB858081088802C0440F551F4A
:100B00000A94E2F7842B8083DF91CF911F910F919C
:100B1000FF90EF90DF90CF90BF90AF900895FC01D1
:100B2000A085B18521898C9190E0022E02C0959517
:100B300087950A94E2F780FFF6CF0484F585E02DCF
:100B4000608308958BE591E09093FF018093FE010F
:100B50008AE791E0909301028093000285EC90E097
:100B6000909303028093020284EC90E0909305023C
:100B70008093040280EC90E0909307028093060239
:100B800081EC90E0909309028093080286EC90E05B
:100B900090930B0280930A0284E080930C0283E01E
:100BA00080930D0287E080930E0285E080930F0210
:100BB00008950F931F93CF93DF938C01EB0109C02E
:100BC0002196D801ED91FC910190F081E02DC801B2
:100BD000099568816623A1F7DF91CF911F910F914D
:100BE0000895EF92FF920F931F93CF93DF938C01A1
:100BF0007B01EA010CC0D7016D917D01D801ED9117
:100C0000FC910190F081E02DC80109952197209772
:100C100091F7DF91CF911F910F91FF90EF90089581
:100C2000DC01ED91FC910280F381E02D099508959E
:100C30000F931F938C01DC01ED91FC910190F081E9
:100C4000E02D6DE00995D801ED91FC910190F081C6
:100C5000E02DC8016AE009951F910F9108950F9347
:100C60001F938C010E941006C8010E9418061F9154
:100C70000F9108952F923F924F925F926F927F92C1
:100C80008F929F92AF92BF92CF92DF92EF92FF929C
:100C90000F931F93DF93CF93CDB7DEB7A0970FB617
:100CA000F894DEBF0FBECDBF1C016A017B01411568
:100CB00051056105710549F4DC01ED91FC9101904C
:100CC000F081E02D60E3099554C0882499245401F3
:100CD000422E55246624772401E010E00C0F1D1FDE
:100CE000080D191DC701B601A30192010E94E0077A
:100CF000F80160830894811C911CA11CB11CC701E0
:100D0000B601A30192010E94E007C901DA016C015A
:100D10007D01C114D104E104F104F1F681E0E82E73
:100D2000F12CEC0EFD1EE80CF91C3E010894611C30
:100D3000711CD501C4010197A109B1096C01C81842
:100D4000D90814C0F601EE0DFF1D60816A3010F461
:100D5000605D01C0695CD101ED91FC910190F08171
:100D6000E02DC10109950894E108F1086E147F0493
:100D700049F7A0960FB6F894DEBF0FBECDBFCF9156
:100D8000DF911F910F91FF90EF90DF90CF90BF9078
:100D9000AF909F908F907F906F905F904F903F901B
:100DA0002F900895EF92FF920F931F93CF93DF93AD
:100DB000EC017A018B0177FF0FC0E881F981019086
:100DC000F081E02D6DE2099510950095F094E09486
:100DD000E11CF11C011D111DCE01B801A7012AE083
:100DE0000E943A06DF91CF911F910F91FF90EF90F3
:100DF0000895AB01662757FD6095762F0E94D206B5
:100E000008951F920F920FB60F9211242F933F93C4
:100E10008F939F93AF93BF9380911402909115028B
:100E2000A0911602B0911702309118020196A11DEF
:100E3000B11D232F2D5F2D3720F02D570196A11DB9
:100E4000B11D209318028093140290931502A09371
:100E50001602B09317028091100290911102A09196
:100E60001202B09113020196A11DB11D80931002D0
:100E700090931102A0931202B0931302BF91AF910D
:100E80009F918F913F912F910F900FBE0F901F90C8
:100E900018956FB7F89486B590E0A0E0B0E0A89BF5
:100EA00008C00097A105B10521F480E091E0A0E021
:100EB000B0E0209110023091110240911202509145
:100EC00013026FBF542F432F322F2227280F391FB1
:100ED0004A1F5B1F82E0220F331F441F551F8A9554
:100EE000D1F7B901CA010895789484B5826084BDB0
:100EF00084B5816084BD85B5826085BD85B581601E
:100F000085BDEEE6F0E0808181608083E1E8F0E07D
:100F1000808182608083808181608083E0E8F0E06E
:100F2000808181608083E1EBF0E080818460808358
:100F3000E0EBF0E0808181608083EAE7F0E080818F
:100F400084608083808182608083808181608083EF
:100F50008081806880831092C1000895629FD001D3
:100F6000739FF001829FE00DF11D649FE00DF11D64
:100F7000929FF00D839FF00D749FF00D659FF00D13
:100F80009927729FB00DE11DF91F639FB00DE11D00
:100F9000F91FBD01CF011124089597FB092E0726E3
:100FA0000AD077FD04D049D006D000201AF47095FD
:100FB00061957F4F0895F6F7909581959F4F08951D
:100FC000A1E21A2EAA1BBB1BFD010DC0AA1FBB1F4D
:100FD000EE1FFF1FA217B307E407F50720F0A21BBF
:100FE000B30BE40BF50B661F771F881F991F1A942C
:100FF00069F760957095809590959B01AC01BD0156
:10100000CF01089597FB092E05260ED057FD04D079
:10101000D7DF0AD0001C38F45095409530952195C3
:101020003F4F4F4F5F4F0895F6F79095809570951D
:1010300061957F4F8F4F9F4F0895AA1BBB1B51E1B6
:1010400007C0AA1FBB1FA617B70710F0A61BB70B38
:10105000881F991F5A95A9F780959095BC01CD01DD
:101060000895EE0FFF1F0590F491E02D0994F89478
:02107000FFCFB0
:101072006368616E6E656C20313A2020002020206A
:10108200202020202000524376616C31207261774B
:101092003A2020006368616E6E656C20323A20202F
:1010A20000524376616C32207261773A202000054B
:1010B2000006000400070009000B000C000D0002EE
:1010C2000003000901F500000000008F05D905F1B9
:0210D200050017
:00000001FF
