:100000000C9462000C948A000C948A000C948A0070
:100010000C948A000C948A000C948A000C948A0038
:100020000C948A000C948A000C948A000C948A0028
:100030000C948A000C948A000C948A000C948A0018
:100040000C948A050C948A000C9472030C948A0018
:100050000C948A000C948A000C948A000C948A00F8
:100060000C948A000C948A000000000024002700F1
:100070002A0000000000250028002B0000000000DE
:1000800023002600290004040404040404040202DA
:100090000202020203030303030301020408102007
:1000A0004080010204081020010204081020000012
:1000B0000007000201000003040600000000000029
:1000C00000002B0411241FBECFEFD4E0DEBFCDBF54
:1000D00011E0A0E0B1E0EEE2FDE002C005900D927B
:1000E000AA35B107D9F712E0AAE5B1E001C01D9227
:1000F000A130B107E1F710E0C4ECD0E004C02297D2
:10010000FE010E949106C23CD107C9F70E94DB01A3
:100110000C9495060C9400006F927F928F929F92A0
:10012000AF92BF92CF92DF92EF92FF920F931F9305
:1001300080914B0161E020E23EE440E050E00E940B
:10014000E20170935B0160935A0180914D0161E07F
:1001500020E23EE440E050E00E94E20170935F0143
:1001600060935E0100D000D060915A0170915B01F4
:10017000882777FD8095982FFFEF6F2EF1E07F2E77
:10018000812C912CEDB7FEB76182728283829482BA
:1001900028EE33E040E050E0ECE6EE2EE7E0FE2E05
:1001A000012D112DAA24BB2465010E94D002709359
:1001B0005D0160935C0160915E0170915F01882731
:1001C00077FD8095982FEDB7FEB7618272828382AA
:1001D00094822CE434E040E050E00E94D00270931E
:1001E00061016093600120915C0130915D010F908D
:1001F0000F900F900F90F1E02A303F0734F02A5013
:10020000314080913F01B90109C0253F31055CF4BF
:1002100064EF70E0621B730B809141010E9419032F
:10022000809147010CC08091470161E00E948302E8
:1002300080913F0160E00E9483028091410160E073
:100240000E948302209160013091610181E02A3097
:10025000380734F02A50314080914301B90109C078
:10026000253F31055CF464EF70E0621B730B8091F5
:1002700045010E941903809149010CC080914901F8
:1002800061E00E9483028091430160E00E9483024A
:100290008091450160E00E94830286EE91E060E07B
:1002A00071E00E94990460915C0170915D0186EE9D
:1002B00091E00E94820586EE91E06DE071E00E947F
:1002C000990486EE91E066E171E00E9499046091E4
:1002D0005A0170915B0186EE91E00E94820586EEE4
:1002E00091E06DE071E00E94990486EE91E064E295
:1002F00071E00E949904609160017091610186EE45
:1003000091E00E94820586EE91E06DE071E00E942E
:10031000990486EE91E061E371E00E949904609196
:100320005E0170915F0186EE91E00E94820586EE8B
:1003300091E06DE071E00E94B8041F910F91FF9071
:10034000EF90DF90CF90BF90AF909F908F907F9075
:100350006F90089586EE91E040E855E260E070E02D
:100360000E94AF0380913F0161E00E94630280918F
:10037000430161E00E9463028091410161E00E94BB
:1003800063028091450161E00E9463028091470110
:1003900061E00E9463028091490161E00E94630272
:1003A00080914B0160E00E94630280914D0160E00A
:1003B0000E94630208950E94D2050E94AA010E9431
:1003C0008C00FDCFDF92EF92FF920F931F93A82F27
:1003D000B0E0CD0186569F4FFC01D490AA57BF4F85
:1003E000FD018491662311F490E001C09D2D6FEF13
:1003F000E62E6FEFF62E6FEF062F6FE0162FE2223C
:10040000F32204231523682F70E0660F771F6458CA
:100410007F4F20E030E040E050E0FB01A591B49137
:100420000AC02E153F054007510709F440C02F5F51
:100430003F4F4F4F5F4F8C918D21891791F30AC029
:100440002E153F054007510791F12F5F3F4F4F4F4A
:100450005F4F03C0FB01A591B4918C918D21891749
:1004600079F720E030E040E050E0FB01A591B49145
:1004700004C02F5F3F4F4F4F5F4F8C918D218917E5
:10048000C1F3CA01B9012AE030E040E050E00E9427
:100490000C069B01AC01205F3F4F4F4F5F4F84E044
:1004A00056954795379527958A95D1F704C020E052
:1004B00030E040E050E0B901CA011F910F91FF9078
:1004C000EF90DF900895282F30E0C90186569F4FA6
:1004D000FC0194912A573F4FF9018491882391F0B0
:1004E000E82FF0E0EE0FFF1FE859FF4FA591B49100
:1004F000662329F48C91909589238C9308958C918F
:10050000892B8C930895482F50E0CA0182559F4F44
:10051000FC012491CA0186569F4FFC0194914A57D1
:100520005F4FFA0134913323D1F1222331F123308B
:1005300021F4809180008F7705C0243031F48091C0
:1005400080008F7D8093800018C0213019F484B51D
:100550008F7704C0223021F484B58F7D84BD0DC017
:10056000263021F48091B0008F7705C0273029F420
:100570008091B0008F7D8093B000E32FF0E0EE0F0C
:10058000FF1FEE58FF4FA591B491662329F48C917B
:10059000909589238C9308958C91892B8C93089541
:1005A0002F923F924F925F926F927F928F929F9283
:1005B000AF92BF92CF92DF92EF92FF920F931F9371
:1005C000DF93CF93CDB7DEB73B014C0119012A0170
:1005D0006D897E898F89988D6A197B098C099D099F
:1005E000621A730A840A950AA40193010E940C06F8
:1005F000E218F30804091509A80197010E94600692
:100600002A0D3B1D4C1D5D1DB901CA01CF91DF9123
:100610001F910F91FF90EF90DF90CF90BF90AF9020
:100620009F908F907F906F905F904F903F902F9012
:1006300008951F93CF93DF93182FEB0161E00E9481
:100640006302E12FF0E0E255FF4F8491833051F4D3
:1006500080918000806880938000D0938900C0934F
:1006600088003CC0843051F4809180008062809387
:100670008000D0938B00C0938A0030C0813039F461
:10068000209729F184B5806884BDC7BD27C082301A
:1006900039F42097E1F084B5806284BDC8BD1EC0E6
:1006A000863041F48091B00080688093B000C093A0
:1006B000B30014C0873041F48091B0008062809311
:1006C000B000C093B4000AC0C038D1051CF4812F1B
:1006D00060E002C0812F61E00E948302DF91CF9130
:1006E0001F9108951F920F920FB60F9211242F930E
:1006F0003F934F935F936F937F938F939F93AF93AA
:10070000BF93EF93FF934091C600E091E201F09117
:10071000E301CF01019660E870E00E942B069C0186
:100720008091E4019091E5012817390739F0EE59DD
:10073000FE4F40833093E3012093E201FF91EF915C
:10074000BF91AF919F918F917F916F915F914F91E9
:100750003F912F910F900FBE0F901F901895AF9261
:10076000BF92CF92DF92EF92FF920F931F93CF939E
:10077000DF936C017A018B01DC011496AD90BC9083
:100780001597CB01BA0122E030E040E050E00E9432
:100790006006205C3D4B404F5F4FCA01B901A80184
:1007A00097010E946006C901DA010197A109B10908
:1007B000292F3A2F4B2F552747FD5A950196A11DFA
:1007C000B11DE5012883E601EE81FF818150808320
:1007D000EA85FB85208141E050E0CA010E8402C019
:1007E000880F991F0A94E2F7282B2083EA85FB855E
:1007F0002081CA010F8402C0880F991F0A94E2F772
:10080000282B2083EA85FB858081088802C0440F5D
:10081000551F0A94E2F7842B8083DF91CF911F91BB
:100820000F91FF90EF90DF90CF90BF90AF90089521
:10083000FC01A085B18521898C9190E0022E02C037
:10084000959587950A94E2F780FFF6CF0484F585A5
:10085000E02D6083089583E591E09093E701809314
:10086000E60182E691E09093E9018093E80185EC4E
:1008700090E09093EB018093EA0184EC90E09093F8
:10088000ED018093EC0180EC90E09093EF01809378
:10089000EE0181EC90E09093F1018093F00186EC01
:1008A00090E09093F3018093F20184E08093F4014F
:1008B00083E08093F50187E08093F60185E08093E3
:1008C000F70108950F931F93CF93DF938C01EB01F2
:1008D00009C02196D801ED91FC910190F081E02DA5
:1008E000C801099568816623A1F7DF91CF911F9117
:1008F0000F910895EF92FF920F931F93CF93DF9381
:100900008C017B01EA010CC0D7016D917D01D801FA
:10091000ED91FC910190F081E02DC801099521979E
:10092000209791F7DF91CF911F910F91FF90EF905A
:100930000895DC01ED91FC910280F381E02D099591
:1009400008950F931F938C01DC01ED91FC910190B0
:10095000F081E02D6DE00995D801ED91FC910190B9
:10096000F081E02DC8016AE009951F910F9108956B
:100970000F931F938C010E949904C8010E94A10447
:100980001F910F9108952F923F924F925F926F9215
:100990007F928F929F92AF92BF92CF92DF92EF920F
:1009A000FF920F931F93DF93CF93CDB7DEB7A0973E
:1009B0000FB6F894DEBF0FBECDBF1C016A017B01EC
:1009C000411551056105710549F4DC01ED91FC917A
:1009D0000190F081E02D60E3099554C088249924AA
:1009E0005401422E55246624772401E010E00C0FB8
:1009F0001D1F080D191DC701B601A30192010E9418
:100A00003E06F80160830894811C911CA11CB11C56
:100A1000C701B601A30192010E943E06C901DA0195
:100A20006C017D01C114D104E104F104F1F681E00F
:100A3000E82EF12CEC0EFD1EE80CF91C3E0108948A
:100A4000611C711CD501C4010197A109B1096C0198
:100A5000C818D90814C0F601EE0DFF1D60816A3078
:100A600010F4605D01C0695CD101ED91FC910190D1
:100A7000F081E02DC10109950894E108F1086E1498
:100A80007F0449F7A0960FB6F894DEBF0FBECDBF26
:100A9000CF91DF911F910F91FF90EF90DF90CF905A
:100AA000BF90AF909F908F907F906F905F904F908E
:100AB0003F902F900895EF92FF920F931F93CF9343
:100AC000DF93EC017A018B0177FF0FC0E881F98198
:100AD0000190F081E02D6DE2099510950095F0945C
:100AE000E094E11CF11C011D111DCE01B801A7010C
:100AF0002AE00E94C304DF91CF911F910F91FF90D4
:100B0000EF900895AB01662757FD6095762F0E9400
:100B10005B0508951F920F920FB60F9211242F9329
:100B20003F938F939F93AF93BF938091FC019091DC
:100B3000FD01A091FE01B091FF01309100020196EC
:100B4000A11DB11D232F2D5F2D3720F02D570196AC
:100B5000A11DB11D209300028093FC019093FD0123
:100B6000A093FE01B093FF018091F8019091F901EB
:100B7000A091FA01B091FB010196A11DB11D8093D6
:100B8000F8019093F901A093FA01B093FB01BF9192
:100B9000AF919F918F913F912F910F900FBE0F902A
:100BA0001F901895789484B5826084BD84B5816067
:100BB00084BD85B5826085BD85B5816085BDEEE665
:100BC000F0E0808181608083E1E8F0E080818260F4
:100BD0008083808181608083E0E8F0E080818160B3
:100BE0008083E1EBF0E0808184608083E0EBF0E0E3
:100BF000808181608083EAE7F0E080818460808387
:100C00008081826080838081816080838081806830
:100C100080831092C1000895629FD001739FF001FC
:100C2000829FE00DF11D649FE00DF11D929FF00D7C
:100C3000839FF00D749FF00D659FF00D9927729FB3
:100C4000B00DE11DF91F639FB00DE11DF91FBD013E
:100C5000CF011124089597FB092E07260AD077FDAE
:100C600004D049D006D000201AF4709561957F4FCA
:100C70000895F6F7909581959F4F0895A1E21A2E59
:100C8000AA1BBB1BFD010DC0AA1FBB1FEE1FFF1F30
:100C9000A217B307E407F50720F0A21BB30BE40B80
:100CA000F50B661F771F881F991F1A9469F76095C7
:100CB0007095809590959B01AC01BD01CF01089581
:100CC00097FB092E05260ED057FD04D0D7DF0AD09A
:100CD000001C38F450954095309521953F4F4F4F6B
:100CE0005F4F0895F6F790958095709561957F4FC9
:100CF0008F4F9F4F0895AA1BBB1B51E107C0AA1F2E
:100D0000BB1FA617B70710F0A61BB70B881F991FAC
:100D10005A95A9F780959095BC01CD010895EE0FE5
:0E0D2000FF1F0590F491E02D0994F894FFCF89
:100D2E006368616E6E656C20313A202000202020B1
:100D3E00202020202000524376616C312072617792
:100D4E003A2020006368616E6E656C20323A202076
:100D5E0000524376616C32207261773A2020000592
:100D6E0000060009000B000A000700030002000045
:0A0D7E00000000180462047A04006B
:00000001FF
