:100000000C9462000C9452040C947F040C948A00AB
:100010000C948A000C948A000C948A000C948A0038
:100020000C948A000C948A000C948A000C948A0028
:100030000C948A000C948A000C948A000C948A0018
:100040000C941D070C948A000C9405050C948A00EE
:100050000C948A000C948A000C948A000C948A00F8
:100060000C948A000C948A000000000024002700F1
:100070002A0000000000250028002B0000000000DE
:1000800023002600290004040404040404040202DA
:100090000202020203030303030301020408102007
:1000A0004080010204081020010204081020000012
:1000B0000007000201000003040600000000000029
:1000C0000000BE0511241FBECFEFD4E0DEBFCDBFC0
:1000D00011E0A0E0B1E0EAEAF0E102C005900D9283
:1000E000A836B107D9F712E0A8E6B1E001C01D9229
:1000F000AF31B107E1F710E0C4ECD0E004C02297C3
:10010000FE010E944F08C23CD107C9F70E94230399
:100110000C9453080C940000AF92BF92CF92DF92E0
:10012000EF92FF920F931F93809170019091710154
:10013000892B09F4D1C01092710110927001809145
:100140006A0190916B01885E93402CF428EE33E0B5
:1001500040E050E015C080916A0190916B01815D93
:1001600097402CF020ED37E040E050E009C080914E
:100170006A0190916B019C01442737FD4095542FF3
:1001800000D000D08FEF91E0A0E0B0E0EDB7FEB777
:1001900081839283A383B483CA01B90128EE33E03B
:1001A00040E050E0A0EDEA2EA7E0FA2E012D112D3F
:1001B000AA24BB2465010E94E6039B0170936F0192
:1001C00060936E010F900F900F900F906115710565
:1001D00049F480916C0190916D0190936F0180932F
:1001E0006E0118C040916C0150916D01F1E06F3FBC
:1001F0007F0739F0241B350B220F331F2159314063
:100200002CF050936F0140936E0104C070936D0108
:1002100060936C0120916E0130916F0180915901C2
:1002200090915A0182179307E4F48091410161E0B3
:100230000E944A036FEF71E080916E0190916F010F
:10024000681B790B809145010E94AC0480914301A9
:1002500060E00E944A038091470161E00E944A03E6
:100260001EC080915B0190915C0128173907DCF476
:100270008091410160E00E944A038091450161E064
:100280000E944A038091430161E00E944A03609109
:100290006E0170916F01809147010E94AC048091C2
:1002A000510160E017C08091510161E00E944A0352
:1002B0008091410160E00E944A038091430160E027
:1002C0000E944A038091450161E00E944A038091A7
:1002D000470161E00E944A0380917A0190917B017D
:1002E000892B09F4BAC010927B0110927A01809197
:1002F000740190917501885E93402CF428EE33E0F0
:1003000040E050E015C08091740190917501815DCD
:1003100097402CF020ED37E040E050E009C080919C
:100320007401909175019C01442737FD4095542F2D
:1003300000D000D08FEF91E0A0E0B0E0EDB7FEB7C5
:1003400081839283A383B483CA01B90128EE33E089
:1003500040E050E0E0EDEE2EE7E0FE2E012D112D05
:10036000AA24BB2465010E94E6039B0170937901D6
:10037000609378010F900F900F900F9061157105A9
:1003800049F480917601909177019093790180935F
:10039000780118C04091760150917701F1E06F3FEC
:1003A0007F0739F0241B350B220F331F21593140B1
:1003B0002CF0509379014093780104C07093770139
:1003C00060937601209178013091790180915901F3
:1003D00090915A0182179307A4F48091530160E031
:1003E0000E944A03609178017091790180915901CE
:1003F00090915A01681B790B80914D010E94AC04C9
:1004000027C080915B0190915C0128173907B4F4F3
:100410008091530160E00E944A0360915B017091FA
:100420005C018091780190917901681B790B809132
:100430004F010E94AC0480914D010CC0809153018A
:1004400061E00E944A0380914D0160E00E944A03EE
:1004500080914F0160E00E944A0384E092E060E0F6
:1004600071E00E942C0660916E0170916F0184E032
:1004700092E00E94150784E092E06DE071E00E9436
:100480002C0684E092E066E171E00E942C06609107
:100490006A0170916B0184E092E00E94150784E08C
:1004A00092E06DE071E00E942C0684E092E065E24B
:1004B00071E00E942C06609178017091790184E0CE
:1004C00092E00E94150784E092E06DE071E00E94E6
:1004D0002C0684E092E062E371E00E942C066091B9
:1004E00074017091750184E092E00E94150784E028
:1004F00092E06DE071E00E944B061F910F91FF901A
:10050000EF90DF90CF90BF90AF900895809157010A
:100510000E949703019739F40E9465077093730155
:100520006093720108950E946507209172013091D5
:100530007301621B730B709375016093740181E00A
:1005400090E090937B0180937A010895809155010A
:100550000E949703019739F40E946507709369011F
:100560006093680108950E946507209168013091A9
:100570006901621B730B70936B0160936A0181E0E8
:1005800090E09093710180937001089584E092E06F
:1005900040E855E260E070E00E944205809145012C
:1005A00061E00E942A038091470161E00E942A03D2
:1005B0008091410161E00E942A038091430161E042
:1005C0000E942A0380914D0161E00E942A038091DC
:1005D0004F0161E00E942A038091490161E00E947D
:1005E0002A0380914B0161E00E942A03809151010E
:1005F00061E00E942A038091530161E00E942A0376
:100600008091550160E00E942A038091570160E0CB
:100610000E942A0380E066EA72E041E050E00E9416
:100620002F0481E066E872E041E050E00E942F0470
:100630008FEF90E090936D0180936C019093770120
:100640008093760108950E9490070E94C6020E943E
:100650008C00FDCF282F30E0C90186569F4FFC014A
:1006600094912A573F4FF9018491882391F0E82F04
:10067000F0E0EE0FFF1FE859FF4FA591B4916623FC
:1006800029F48C91909589238C9308958C91892BD2
:100690008C930895482F50E0CA0182559F4FFC016A
:1006A0002491CA0186569F4FFC0194914A575F4F8F
:1006B000FA0134913323D1F1222331F1233021F493
:1006C000809180008F7705C0243031F480918000C4
:1006D0008F7D8093800018C0213019F484B58F7706
:1006E00004C0223021F484B58F7D84BD0DC0263036
:1006F00021F48091B0008F7705C0273029F48091D4
:10070000B0008F7D8093B000E32FF0E0EE0FFF1F6D
:10071000EE58FF4FA591B491662329F48C919095E2
:1007200089238C9308958C91892B8C930895682F3D
:1007300070E0CB0182559F4FFC012491CB0186567E
:100740009F4FFC0144916A577F4FFB01949199237D
:1007500019F420E030E038C0222331F1233021F4B5
:10076000809180008F7705C0243031F48091800023
:100770008F7D8093800018C0213019F484B58F7765
:1007800004C0223021F484B58F7D84BD0DC0263095
:1007900021F48091B0008F7705C0273029F4809133
:1007A000B0008F7D8093B000892F90E0880F991F53
:1007B00084589F4FFC01A591B4918C9120E030E0CA
:1007C000842311F021E030E0C90108952F923F9277
:1007D0004F925F926F927F928F929F92AF92BF9251
:1007E000CF92DF92EF92FF920F931F93DF93CF93FD
:1007F000CDB7DEB73B014C0119012A016D897E8915
:100800008F89988D6A197B098C099D09621A730A70
:10081000840A950AA40193010E94CA07E218F3080A
:1008200004091509A80197010E941E082A0D3B1D05
:100830004C1D5D1DB901CA01CF91DF911F910F9130
:10084000FF90EF90DF90CF90BF90AF909F908F90F0
:100850007F906F905F904F903F902F9008958230DF
:1008600000F5E82FF0E0EE0FFF1FE458FE4F718314
:100870006083882319F08130A1F408C08091690059
:100880008C7F842B80936900E89A08958091690099
:10089000440F551F440F551F837F842B809369009D
:1008A000E99A08951F920F920FB60F9211242F9379
:1008B0003F934F935F936F937F938F939F93AF93E8
:1008C000BF93EF93FF9380917C0190917D01892BE1
:1008D00029F0E0917C01F0917D010995FF91EF9164
:1008E000BF91AF919F918F917F916F915F914F9148
:1008F0003F912F910F900FBE0F901F9018951F9250
:100900000F920FB60F9211242F933F934F935F9343
:100910006F937F938F939F93AF93BF93EF93FF93C7
:1009200080917E0190917F01892B29F0E0917E01D9
:10093000F0917F010995FF91EF91BF91AF919F9148
:100940008F917F916F915F914F913F912F910F9078
:100950000FBE0F901F9018951F93CF93DF93182F02
:10096000EB0161E00E942A03E12FF0E0E255FF4F26
:100970008491833051F4809180008068809380005E
:10098000D0938900C09388003CC0843051F480919A
:100990008000806280938000D0938B00C0938A0097
:1009A00030C0813039F4209729F184B5806884BD46
:1009B000C7BD27C0823039F42097E1F084B580624A
:1009C00084BDC8BD1EC0863041F48091B0008068EF
:1009D0008093B000C093B30014C0873041F480917D
:1009E000B00080628093B000C093B4000AC0C038E9
:1009F000D1051CF4812F60E002C0812F61E00E94CC
:100A00004A03DF91CF911F9108951F920F920FB665
:100A10000F9211242F933F934F935F936F937F9384
:100A20008F939F93AF93BF93EF93FF934091C60033
:100A3000E0910002F0910102CF01019660E870E0C0
:100A40000E94E9079C0180910202909103022817FD
:100A5000390739F0E058FE4F40833093010220936C
:100A60000002FF91EF91BF91AF919F918F917F9184
:100A70006F915F914F913F912F910F900FBE0F900B
:100A80001F901895AF92BF92CF92DF92EF92FF9294
:100A90000F931F93CF93DF936C017A018B01DC01DD
:100AA0001496AD90BC901597CB01BA0122E030E0CE
:100AB00040E050E00E941E08205C3D4B404F5F4FDD
:100AC000CA01B901A80197010E941E08C901DA01F3
:100AD0000197A109B109292F3A2F4B2F552747FD1F
:100AE0005A950196A11DB11DE5012883E601EE810D
:100AF000FF8181508083EA85FB85208141E050E0C1
:100B0000CA010E8402C0880F991F0A94E2F7282BAD
:100B10002083EA85FB852081CA010F8402C0880FEB
:100B2000991F0A94E2F7282B2083EA85FB858081B0
:100B3000088802C0440F551F0A94E2F7842B808373
:100B4000DF91CF911F910F91FF90EF90DF90CF90A9
:100B5000BF90AF900895FC01A085B18521898C914B
:100B600090E0022E02C0959587950A94E2F780FFE7
:100B7000F6CF0484F585E02D6083089581E691E049
:100B8000909305028093040280E891E0909307021D
:100B90008093060285EC90E090930902809308020E
:100BA00084EC90E090930B0280930A0280EC90E03A
:100BB00090930D0280930C0281EC90E090930F02D1
:100BC00080930E0286EC90E09093110280931002C5
:100BD00084E08093120283E08093130287E0809385
:100BE000140285E08093150208950F931F93CF930D
:100BF000DF938C01EB0109C02196D801ED91FC91A6
:100C00000190F081E02DC801099568816623A1F764
:100C1000DF91CF911F910F910895EF92FF920F9363
:100C20001F93CF93DF938C017B01EA010CC0D701A6
:100C30006D917D01D801ED91FC910190F081E02D45
:100C4000C80109952197209791F7DF91CF911F91C6
:100C50000F91FF90EF900895DC01ED91FC910280DF
:100C6000F381E02D099508950F931F938C01DC010A
:100C7000ED91FC910190F081E02D6DE00995D80196
:100C8000ED91FC910190F081E02DC8016AE0099599
:100C90001F910F9108950F931F938C010E942C06B2
:100CA000C8010E9434061F910F9108952F923F9220
:100CB0004F925F926F927F928F929F92AF92BF926C
:100CC000CF92DF92EF92FF920F931F93DF93CF9318
:100CD000CDB7DEB7A0970FB6F894DEBF0FBECDBF7D
:100CE0001C016A017B01411551056105710549F43B
:100CF000DC01ED91FC910190F081E02D60E309951C
:100D000054C0882499245401422E55246624772403
:100D100001E010E00C0F1D1F080D191DC701B601E1
:100D2000A30192010E94FC07F80160830894811CD2
:100D3000911CA11CB11CC701B601A30192010E9424
:100D4000FC07C901DA016C017D01C114D104E10481
:100D5000F104F1F681E0E82EF12CEC0EFD1EE80C1A
:100D6000F91C3E010894611C711CD501C401019756
:100D7000A109B1096C01C818D90814C0F601EE0D1B
:100D8000FF1D60816A3010F4605D01C0695CD101B3
:100D9000ED91FC910190F081E02DC101099508943D
:100DA000E108F1086E147F0449F7A0960FB6F89495
:100DB000DEBF0FBECDBFCF91DF911F910F91FF908E
:100DC000EF90DF90CF90BF90AF909F908F907F90EB
:100DD0006F905F904F903F902F900895EF92FF9209
:100DE0000F931F93CF93DF93EC017A018B0177FF71
:100DF0000FC0E881F9810190F081E02D6DE2099545
:100E000010950095F094E094E11CF11C011D111D5A
:100E1000CE01B801A7012AE00E945606DF91CF91CA
:100E20001F910F91FF90EF900895AB01662757FD3A
:100E30006095762F0E94EE0608951F920F920FB6CE
:100E40000F9211242F933F938F939F93AF93BF9350
:100E500080911A0290911B02A0911C02B0911D0278
:100E600030911E020196A11DB11D232F2D5F2D373C
:100E700020F02D570196A11DB11D20931E028093D5
:100E80001A0290931B02A0931C02B0931D02809142
:100E9000160290911702A0911802B09119020196C2
:100EA000A11DB11D8093160290931702A093180202
:100EB000B0931902BF91AF919F918F913F912F9164
:100EC0000F900FBE0F901F9018956FB7F89486B5CE
:100ED00090E0A0E0B0E0A89B08C00097A105B10594
:100EE00021F480E091E0A0E0B0E020911602309182
:100EF000170240911802509119026FBF542F432FCF
:100F0000322F2227280F391F4A1F5B1F82E0220F32
:100F1000331F441F551F8A95D1F7B901CA0108959F
:100F2000789484B5826084BD84B5816084BD85B5C4
:100F3000826085BD85B5816085BDEEE6F0E080818B
:100F400081608083E1E8F0E080818260808380813D
:100F500081608083E0E8F0E0808181608083E1EB64
:100F6000F0E0808184608083E0EBF0E0808181604C
:100F70008083EAE7F0E08081846080838081826002
:100F800080838081816080838081806880831092EB
:100F9000C1000895629FD001739FF001829FE00D10
:100FA000F11D649FE00DF11D929FF00D839FF00DE8
:100FB000749FF00D659FF00D9927729FB00DE11D94
:100FC000F91F639FB00DE11DF91FBD01CF01112471
:100FD000089597FB092E07260AD077FD04D049D043
:100FE00006D000201AF4709561957F4F0895F6F7AA
:100FF000909581959F4F0895A1E21A2EAA1BBB1BC5
:10100000FD010DC0AA1FBB1FEE1FFF1FA217B307D4
:10101000E407F50720F0A21BB30BE40BF50B661FEA
:10102000771F881F991F1A9469F7609570958095AE
:1010300090959B01AC01BD01CF01089597FB092E4E
:1010400005260ED057FD04D0D7DF0AD0001C38F497
:1010500050954095309521953F4F4F4F5F4F0895E4
:10106000F6F790958095709561957F4F8F4F9F4FC4
:101070000895AA1BBB1B51E107C0AA1FBB1FA617DF
:10108000B70710F0A61BB70B881F991F5A95A9F731
:1010900080959095BC01CD010895EE0FFF1F05903E
:0A10A000F491E02D0994F894FFCFBD
:1010AA006368616E6E656C20313A20200020202032
:1010BA002020202020007263315F76616C207261EB
:1010CA00773A2020006368616E6E656C20323A20A0
:1010DA0020007263325F76616C207261773A202059
:1010EA0000040007000500060008000B0009000ABA
:1010FA00000C000D00020003000901F500000000C9
:08110A0000AB05F5050D060020
:00000001FF
