:100000000C9462000C94FB030C9428040C948A005A
:100010000C948A000C948A000C948A000C948A0038
:100020000C948A000C948A000C948A000C948A0028
:100030000C948A000C948A000C948A000C948A0018
:100040000C94C6060C948A000C94AE040C948A009E
:100050000C948A000C948A000C948A000C948A00F8
:100060000C948A000C948A000000000024002700F1
:100070002A0000000000250028002B0000000000DE
:1000800023002600290004040404040404040202DA
:100090000202020203030303030301020408102007
:1000A0004080010204081020010204081020000012
:1000B0000007000201000003040600000000000029
:1000C0000000670511241FBECFEFD4E0DEBFCDBF17
:1000D00011E0A0E0B1E0ECEFFFE002C005900D926E
:1000E000AA35B107D9F712E0AAE5B1E001C01D9227
:1000F000A131B107E1F710E0C4ECD0E004C02297D1
:10010000FE010E94F807C23CD107C9F70E94CC0249
:100110000C94FC070C940000AF92BF92CF92DF9238
:10012000EF92FF920F931F93809168019091690164
:10013000892B09F4A9C0109269011092680180917D
:100140005A0190915B01885E93402CF428EE33E0D5
:1001500040E050E015C080915A0190915B01815DB3
:1001600097402CF020ED37E040E050E009C080914E
:100170005A0190915B019C01442737FD4095542F13
:1001800000D000D08FEF91E0A0E0B0E0EDB7FEB777
:1001900081839283A383B483CA01B90128EE33E03B
:1001A00040E050E0F0EDEF2EF7E0FF2E012D112D95
:1001B000AA24BB2465010E948F0370935F016093A2
:1001C0005E010F900F900F900F906115710549F42B
:1001D00080915C0190915D0190935F0180935E013D
:1001E00004C070935D0160935C0180915E01909109
:1001F0005F01F1E08F3F9F0749F480915C0190918E
:100200005D0190935F0180935E0104C090935D0156
:1002100080935C0160915E0170915F0121E0653027
:10022000720764F06450714080913F010E94550450
:100230008091410160E00E94F30214C06A3F7105A1
:10024000A4F480913F0160E00E94F3026AEF70E045
:1002500080915E0190915F01681B790B8091410153
:100260000E945504809147010CC08091470161E0D4
:100270000E94F30280913F0160E00E94F3028091AE
:10028000410160E00E94F30280916C0190916D0148
:10029000892B09F4A9C010926D0110926C01809114
:1002A000600190916101885E93402CF428EE33E068
:1002B00040E050E015C08091600190916101815D46
:1002C00097402CF020ED37E040E050E009C08091ED
:1002D0006001909161019C01442737FD4095542FA6
:1002E00000D000D08FEF91E0A0E0B0E0EDB7FEB716
:1002F00081839283A383B483CA01B90128EE33E0DA
:1003000040E050E0E0EDEE2EE7E0FE2E012D112D55
:10031000AA24BB2465010E948F037093650160933A
:1003200064010F900F900F900F906115710549F4C3
:1003300080916201909163019093650180936401C3
:1003400004C0709363016093620180916401909195
:100350006501F1E08F3F9F0749F480916201909120
:100360006301909365018093640104C090936301DD
:1003700080936201609164017091650121E06530B4
:10038000720764F064507140809143010E945504EB
:100390008091450160E00E94F30214C06A3F71053C
:1003A000A4F48091430160E00E94F3026AEF70E0E0
:1003B0008091640190916501681B790B80914501E2
:1003C0000E945504809149010CC08091490161E06F
:1003D0000E94F3028091430160E00E94F302809149
:1003E000450160E00E94F30286EF91E060E071E079
:1003F0000E94D50560915E0170915F0186EF91E0EA
:100400000E94BE0686EF91E06DE071E00E94D50586
:1004100086EF91E066E171E00E94D50560915A0196
:1004200070915B0186EF91E00E94BE0686EF91E03D
:100430006DE071E00E94D50586EF91E064E271E025
:100440000E94D505609164017091650186EF91E08D
:100450000E94BE0686EF91E06DE071E00E94D50536
:1004600086EF91E061E371E00E94D5056091600143
:100470007091610186EF91E00E94BE0686EF91E0E7
:100480006DE071E00E94F4051F910F91FF90EF90D5
:10049000DF90CF90BF90AF90089580914D010E9462
:1004A0004003019739F40E940E0770936B0160932B
:1004B0006A0108950E940E0720916A0130916B0134
:1004C000621B730B709361016093600181E090E0A7
:1004D00090936D0180936C01089580914B010E946F
:1004E0004003019739F40E940E07709367016093EF
:1004F000660108950E940E07209166013091670100
:10050000621B730B70935B0160935A0181E090E072
:100510009093690180936801089586EF91E040E827
:1005200055E260E070E00E94EB0480913F0161E0E1
:100530000E94D3028091410161E00E94D302809128
:10054000430161E00E94D3028091450161E00E9475
:10055000D3028091470161E00E94D302809149015A
:1005600061E00E94D30280914B0160E00E94D302BF
:1005700080914D0160E00E94D30280E06DE672E060
:1005800041E050E00E94D80381E06DE472E041E078
:1005900050E00E94D80308950E9439070E948D02FE
:1005A0000E948C00FDCF282F30E0C90186569F4F56
:1005B000FC0194912A573F4FF9018491882391F0CF
:1005C000E82FF0E0EE0FFF1FE859FF4FA591B4911F
:1005D000662329F48C91909589238C9308958C91AE
:1005E000892B8C930895482F50E0CA0182559F4F64
:1005F000FC012491CA0186569F4FFC0194914A57F1
:100600005F4FFA0134913323D1F1222331F12330AA
:1006100021F4809180008F7705C0243031F48091DF
:1006200080008F7D8093800018C0213019F484B53C
:100630008F7704C0223021F484B58F7D84BD0DC036
:10064000263021F48091B0008F7705C0273029F43F
:100650008091B0008F7D8093B000E32FF0E0EE0F2B
:10066000FF1FEE58FF4FA591B491662329F48C919A
:10067000909589238C9308958C91892B8C93089560
:10068000682F70E0CB0182559F4FFC012491CB0174
:1006900086569F4FFC0144916A577F4FFB0194910E
:1006A000992319F420E030E038C0222331F12330BF
:1006B00021F4809180008F7705C0243031F480913F
:1006C00080008F7D8093800018C0213019F484B59C
:1006D0008F7704C0223021F484B58F7D84BD0DC096
:1006E000263021F48091B0008F7705C0273029F49F
:1006F0008091B0008F7D8093B000892F90E0880FAB
:10070000991F84589F4FFC01A591B4918C9120E0D2
:1007100030E0842311F021E030E0C90108952F92E8
:100720003F924F925F926F927F928F929F92AF9281
:10073000BF92CF92DF92EF92FF920F931F93DF93BE
:10074000CF93CDB7DEB73B014C0119012A016D896A
:100750007E898F89988D6A197B098C099D09621A97
:10076000730A840A950AA40193010E947307E21890
:10077000F30804091509A80197010E94C7072A0D6B
:100780003B1D4C1D5D1DB901CA01CF91DF911F9129
:100790000F91FF90EF90DF90CF90BF90AF909F9020
:1007A0008F907F906F905F904F903F902F90089523
:1007B000823000F5E82FF0E0EE0FFF1FE259FE4F08
:1007C00071836083882319F08130A1F408C080917F
:1007D00069008C7F842B80936900E89A089580914A
:1007E0006900440F551F440F551F837F842B80934E
:1007F0006900E99A08951F920F920FB60F92112483
:100800002F933F934F935F936F937F938F939F9318
:10081000AF93BF93EF93FF9380916E0190916F011F
:10082000892B29F0E0916E01F0916F010995FF91FC
:10083000EF91BF91AF919F918F917F916F915F9158
:100840004F913F912F910F900FBE0F901F901895D1
:100850001F920F920FB60F9211242F933F934F9335
:100860005F936F937F938F939F93AF93BF93EF9318
:10087000FF938091700190917101892B29F0E09193
:100880007001F09171010995FF91EF91BF91AF91C6
:100890009F918F917F916F915F914F913F912F9198
:1008A0000F900FBE0F901F9018951F93CF93DF935B
:1008B000182FEB0161E00E94D302E12FF0E0E25536
:1008C000FF4F8491833051F4809180008068809341
:1008D0008000D0938900C09388003CC0843051F4DC
:1008E00080918000806280938000D0938B00C093C1
:1008F0008A0030C0813039F4209729F184B58068AE
:1009000084BDC7BD27C0823039F42097E1F084B59B
:10091000806284BDC8BD1EC0863041F48091B000A5
:1009200080688093B000C093B30014C0873041F456
:100930008091B00080628093B000C093B4000AC080
:10094000C038D1051CF4812F60E002C0812F61E026
:100950000E94F302DF91CF911F9108951F920F9291
:100960000FB60F9211242F933F934F935F936F9382
:100970007F938F939F93AF93BF93EF93FF93409198
:10098000C600E091F201F091F301CF01019660E819
:1009900070E00E9492079C018091F4019091F50112
:1009A0002817390739F0EE58FE4F40833093F30192
:1009B0002093F201FF91EF91BF91AF919F918F91A1
:1009C0007F916F915F914F913F912F910F900FBE4B
:1009D0000F901F901895AF92BF92CF92DF92EF9237
:1009E000FF920F931F93CF93DF936C017A018B01DA
:1009F000DC011496AD90BC901597CB01BA0122E0B2
:100A000030E040E050E00E94C707205C3D4B404F83
:100A10005F4FCA01B901A80197010E94C707C90128
:100A2000DA010197A109B109292F3A2F4B2F552738
:100A300047FD5A950196A11DB11DE5012883E601E8
:100A4000EE81FF8181508083EA85FB85208141E032
:100A500050E0CA010E8402C0880F991F0A94E2F781
:100A6000282B2083EA85FB852081CA010F8402C0E0
:100A7000880F991F0A94E2F7282B2083EA85FB85CB
:100A80008081088802C0440F551F0A94E2F7842B26
:100A90008083DF91CF911F910F91FF90EF90DF90B6
:100AA000CF90BF90AF900895FC01A085B1852189BA
:100AB0008C9190E0022E02C0959587950A94E2F7FA
:100AC00080FFF6CF0484F585E02D6083089583E5EB
:100AD00091E09093F7018093F60182E791E0909383
:100AE000F9018093F80185EC90E09093FB018093ED
:100AF000FA0184EC90E09093FD018093FC0180EC7E
:100B000090E09093FF018093FE0181EC90E0909340
:100B100001028093000286EC90E0909303028093A0
:100B2000020284E08093040283E08093050287E060
:100B30008093060285E08093070208950F931F9328
:100B4000CF93DF938C01EB0109C02196D801ED9181
:100B5000FC910190F081E02DC80109956881662320
:100B6000A1F7DF91CF911F910F910895EF92FF921E
:100B70000F931F93CF93DF938C017B01EA010CC08D
:100B8000D7016D917D01D801ED91FC910190F0812B
:100B9000E02DC80109952197209791F7DF91CF911A
:100BA0001F910F91FF90EF900895DC01ED91FC9162
:100BB0000280F381E02D099508950F931F938C0116
:100BC000DC01ED91FC910190F081E02D6DE0099543
:100BD000D801ED91FC910190F081E02DC8016AE00F
:100BE00009951F910F9108950F931F938C010E94F7
:100BF000D505C8010E94DD051F910F9108952F9220
:100C00003F924F925F926F927F928F929F92AF929C
:100C1000BF92CF92DF92EF92FF920F931F93DF93D9
:100C2000CF93CDB7DEB7A0970FB6F894DEBF0FBE57
:100C3000CDBF1C016A017B0141155105610571059C
:100C400049F4DC01ED91FC910190F081E02D60E32D
:100C5000099554C0882499245401422E55246624B1
:100C6000772401E010E00C0F1D1F080D191DC701AE
:100C7000B601A30192010E94A507F80160830894C0
:100C8000811C911CA11CB11CC701B601A3019201DA
:100C90000E94A507C901DA016C017D01C114D104CC
:100CA000E104F104F1F681E0E82EF12CEC0EFD1EDA
:100CB000E80CF91C3E010894611C711CD501C401AB
:100CC0000197A109B1096C01C818D90814C0F6012F
:100CD000EE0DFF1D60816A3010F4605D01C0695C3B
:100CE000D101ED91FC910190F081E02DC1010995B8
:100CF0000894E108F1086E147F0449F7A0960FB636
:100D0000F894DEBF0FBECDBFCF91DF911F910F9141
:100D1000FF90EF90DF90CF90BF90AF909F908F901B
:100D20007F906F905F904F903F902F900895EF923B
:100D3000FF920F931F93CF93DF93EC017A018B0106
:100D400077FF0FC0E881F9810190F081E02D6DE21D
:100D5000099510950095F094E094E11CF11C011D9B
:100D6000111DCE01B801A7012AE00E94FF05DF9105
:100D7000CF911F910F91FF90EF900895AB016627DF
:100D800057FD6095762F0E94970608951F920F9247
:100D90000FB60F9211242F933F938F939F93AF938E
:100DA000BF9380910C0290910D02A0910E02B09120
:100DB0000F02309110020196A11DB11D232F2D5F4E
:100DC0002D3720F02D570196A11DB11D2093100243
:100DD00080930C0290930D02A0930E02B0930F0229
:100DE0008091080290910902A0910A02B0910B0231
:100DF0000196A11DB11D8093080290930902A09352
:100E00000A02B0930B02BF91AF919F918F913F91D6
:100E10002F910F900FBE0F901F9018956FB7F894F9
:100E200086B590E0A0E0B0E0A89B08C00097A105BF
:100E3000B10521F480E091E0A0E0B0E0209108024B
:100E40003091090240910A0250910B026FBF542F5A
:100E5000432F322F2227280F391F4A1F5B1F82E0A2
:100E6000220F331F441F551F8A95D1F7B901CA01BC
:100E70000895789484B5826084BD84B5816084BD12
:100E800085B5826085BD85B5816085BDEEE6F0E003
:100E9000808181608083E1E8F0E0808182608083EE
:100EA000808181608083E0E8F0E0808181608083E0
:100EB000E1EBF0E0808184608083E0EBF0E0808112
:100EC00081608083EAE7F0E08081846080838081B4
:100ED000826080838081816080838081806880835C
:100EE0001092C1000895629FD001739FF001829F0C
:100EF000E00DF11D649FE00DF11D929FF00D839FA9
:100F0000F00D749FF00D659FF00D9927729FB00D45
:100F1000E11DF91F639FB00DE11DF91FBD01CF0158
:100F20001124089597FB092E07260AD077FD04D0D7
:100F300049D006D000201AF4709561957F4F08952E
:100F4000F6F7909581959F4F0895A1E21A2EAA1B5E
:100F5000BB1BFD010DC0AA1FBB1FEE1FFF1FA21769
:100F6000B307E407F50720F0A21BB30BE40BF50B66
:100F7000661F771F881F991F1A9469F760957095EF
:100F8000809590959B01AC01BD01CF01089597FB21
:100F9000092E05260ED057FD04D0D7DF0AD0001C3D
:100FA00038F450954095309521953F4F4F4F5F4F06
:100FB0000895F6F790958095709561957F4F8F4FC6
:100FC0009F4F0895AA1BBB1B51E107C0AA1FBB1F5F
:100FD000A617B70710F0A61BB70B881F991F5A95C5
:100FE000A9F780959095BC01CD010895EE0FFF1FE4
:0C0FF0000590F491E02D0994F894FFCFD7
:100FFC006368616E6E656C20313A202000202020E1
:10100C00202020202000524376616C3120726177C1
:10101C003A2020006368616E6E656C20323A2020A5
:10102C0000524376616C32207261773A20200005C1
:10103C0000060009000B000C000D0002000300006C
:0A104C0000000054059E05B60500E3
:00000001FF
