:100000000C9462000C9458040C9485040C948A009F
:100010000C948A000C948A000C948A000C948A0038
:100020000C948A000C948A000C948A000C948A0028
:100030000C948A000C948A000C948A000C948A0018
:100040000C9423070C948A000C940B050C948A00E2
:100050000C948A000C948A000C948A000C948A00F8
:100060000C948A000C948A000000000024002700F1
:100070002A0000000000250028002B0000000000DE
:1000800023002600290004040404040404040202DA
:100090000202020203030303030301020408102007
:1000A0004080010204081020010204081020000012
:1000B0000007000201000003040600000000000029
:1000C0000000C40511241FBECFEFD4E0DEBFCDBFBA
:1000D00011E0A0E0B1E0E6EBF0E102C005900D9286
:1000E000A236B107D9F712E0A2E6B1E001C01D9235
:1000F000A931B107E1F710E0C4ECD0E004C02297C9
:10010000FE010E945508C23CD107C9F70E9429038D
:100110000C9459080C940000AF92BF92CF92DF92DA
:10012000EF92FF920F931F9380916A0190916B0160
:10013000892B09F4E9C010926B0110926A01809139
:10014000640190916501885E93402CF428EE33E0C1
:1001500040E050E015C08091640190916501815D9F
:1001600097402CF020ED37E040E050E009C080914E
:100170006401909165019C01442737FD4095542FFF
:1001800000D000D08FEF91E0A0E0B0E0EDB7FEB777
:1001900081839283A383B483CA01B90128EE33E03B
:1001A00040E050E0F0EDEF2EF7E0FF2E012D112D95
:1001B000AA24BB2465010E94EC039B01AC0170934F
:1001C0006901609368016091660170916701C901DE
:1001D000861B970B0F900F900F900F90873991050A
:1001E0002CF0709369016093680104C0309367013B
:1001F000209366018091680190916901009749F40C
:1002000080916601909167019093690180936801E4
:1002100004C090936701809366018091680190917A
:100220006901F1E08F3F9F0749F480916601909149
:100230006701909369018093680104C090936701FE
:10024000809366012091680130916901809153018A
:100250009091540182179307E4F48091430161E087
:100260000E9450036FEF71E08091680190916901E5
:10027000681B790B80913F010E94B2048091450177
:1002800060E00E9450038091410161E00E945003B0
:100290001EC0809155019091560128173907DCF452
:1002A0008091430160E00E94500380913F0161E032
:1002B0000E9450038091450161E00E9450036091CB
:1002C000680170916901809141010E94B20480919E
:1002D0004B0160E017C080914B0161E00E94500328
:1002E0008091430160E00E9450038091450160E0ED
:1002F0000E94500380913F0161E00E945003809171
:10030000410161E00E945003809174019091750158
:10031000892B09F4B2C0109275011092740180917A
:100320006C0190916D01885E93402CF428EE33E0CF
:1003300040E050E015C080916C0190916D01815DAD
:1003400097402CF020ED37E040E050E009C080916C
:100350006C0190916D019C01442737FD4095542F0D
:1003600000D000D08FEF91E0A0E0B0E0EDB7FEB795
:1003700081839283A383B483CA01B90128EE33E059
:1003800040E050E0E0EDEE2EE7E0FE2E012D112DD5
:10039000AA24BB2465010E94EC0370937101609351
:1003A00070010F900F900F900F906115710549F437
:1003B00080916E0190916F01909371018093700113
:1003C00004C070936F0160936E01809170019091F1
:1003D0007101F1E08F3F9F0749F480916E01909188
:1003E0006F01909371018093700104C090936F012D
:1003F00080936E0160917001709171018091530141
:10040000909154018617970764F4681B790B8091CB
:1004100047010E94B2048091490160E00E945003AC
:100420001AC0809155019091560168177907B4F46C
:100430008091470160E00E945003609155017091E6
:1004400056018091700190917101681B790B809128
:1004500049010E94B20480914D010CC080914D0170
:1004600061E00E9450038091470160E00E945003C8
:100470008091490160E00E9450038EEF91E060E0BE
:1004800071E00E94320660916801709169018EEFFF
:1004900091E00E941B078EEF91E06DE071E00E94F9
:1004A00032068EEF91E066E171E00E9432066091C3
:1004B0006401709165018EEF91E00E941B078EEF41
:1004C00091E06DE071E00E9432068EEF91E064E20F
:1004D00071E00E94320660917001709171018EEF9F
:1004E00091E00E941B078EEF91E06DE071E00E94A9
:1004F00032068EEF91E061E371E00E943206609176
:100500006C0170916D018EEF91E00E941B078EEFE0
:1005100091E06DE071E00E9451061F910F91FF90F4
:10052000EF90DF90CF90BF90AF90089580915101F0
:100530000E949D03019739F40E946B077093730129
:100540006093720108950E946B07209172013091AF
:100550007301621B730B70936D0160936C0181E0FA
:1005600090E09093750180937401089580914F01FC
:100570000E949D03019739F40E946B0770936301F9
:100580006093620108950E946B072091620130918F
:100590006301621B730B709365016093640181E0DA
:1005A00090E090936B0180936A0108958EEF91E043
:1005B00040E855E260E070E00E94480580913F010C
:1005C00061E00E9430038091410161E00E943003AC
:1005D0008091470161E00E9430038091490161E010
:1005E0000E9430038091430161E00E9430038091BA
:1005F000450161E00E94300380914B0161E00E945F
:10060000300380914D0161E00E94300380914F01E1
:1006100060E00E9430038091510160E00E9430034D
:1006200080E066EB72E041E050E00E94350481E03A
:1006300066E972E041E050E00E9435048FEF90E0FF
:10064000909367018093660190936F0180936E0190
:1006500008950E9496070E94D6020E948C00FDCF4A
:10066000282F30E0C90186569F4FFC0194912A57EC
:100670003F4FF9018491882391F0E82FF0E0EE0FCD
:10068000FF1FE859FF4FA591B491662329F48C917F
:10069000909589238C9308958C91892B8C93089540
:1006A000482F50E0CA0182559F4FFC012491CA0196
:1006B00086569F4FFC0194914A575F4FFA0134913F
:1006C0003323D1F1222331F1233021F480918000B2
:1006D0008F7705C0243031F4809180008F7D809326
:1006E000800018C0213019F484B58F7704C02230FF
:1006F00021F484B58F7D84BD0DC0263021F4809116
:10070000B0008F7705C0273029F48091B0008F7D2D
:100710008093B000E32FF0E0EE0FFF1FEE58FF4F85
:10072000A591B491662329F48C91909589238C939B
:1007300008958C91892B8C930895682F70E0CB01DC
:1007400082559F4FFC012491CB0186569F4FFC019F
:1007500044916A577F4FFB019491992319F420E04B
:1007600030E038C0222331F1233021F48091800021
:100770008F7705C0243031F4809180008F7D809385
:10078000800018C0213019F484B58F7704C022305E
:1007900021F484B58F7D84BD0DC0263021F4809175
:1007A000B0008F7705C0273029F48091B0008F7D8D
:1007B0008093B000892F90E0880F991F84589F4F35
:1007C000FC01A591B4918C9120E030E0842311F0DC
:1007D00021E030E0C90108952F923F924F925F923D
:1007E0006F927F928F929F92AF92BF92CF92DF9241
:1007F000EF92FF920F931F93DF93CF93CDB7DEB7A6
:100800003B014C0119012A016D897E898F89988DE0
:100810006A197B098C099D09621A730A840A950A70
:10082000A40193010E94D007E218F30804091509F6
:10083000A80197010E9424082A0D3B1D4C1D5D1D37
:10084000B901CA01CF91DF911F910F91FF90EF90F5
:10085000DF90CF90BF90AF909F908F907F906F90E0
:100860005F904F903F902F900895823000F5E82FD1
:10087000F0E0EE0FFF1FEA58FE4F7183608388237C
:1008800019F08130A1F408C0809169008C7F842B1D
:1008900080936900E89A089580916900440F551F7C
:1008A000440F551F837F842B80936900E99A089534
:1008B0001F920F920FB60F9211242F933F934F93D5
:1008C0005F936F937F938F939F93AF93BF93EF93B8
:1008D000FF938091760190917701892B29F0E09127
:1008E0007601F09177010995FF91EF91BF91AF915A
:1008F0009F918F917F916F915F914F913F912F9138
:100900000F900FBE0F901F9018951F920F920FB669
:100910000F9211242F933F934F935F936F937F9385
:100920008F939F93AF93BF93EF93FF938091780141
:1009300090917901892B29F0E0917801F09179016A
:100940000995FF91EF91BF91AF919F918F917F9109
:100950006F915F914F913F912F910F900FBE0F902C
:100960001F9018951F93CF93DF93182FEB0161E031
:100970000E943003E12FF0E0E255FF4F8491833075
:1009800051F480918000806880938000D09389002A
:10099000C09388003CC0843051F480918000806214
:1009A00080938000D0938B00C0938A0030C0813048
:1009B00039F4209729F184B5806884BDC7BD27C06C
:1009C000823039F42097E1F084B5806284BDC8BDDF
:1009D0001EC0863041F48091B00080688093B000E2
:1009E000C093B30014C0873041F48091B00080629E
:1009F0008093B000C093B4000AC0C038D1051CF485
:100A0000812F60E002C0812F61E00E945003DF91DE
:100A1000CF911F9108951F920F920FB60F9211243C
:100A20002F933F934F935F936F937F938F939F93F6
:100A3000AF93BF93EF93FF934091C600E091FA010B
:100A4000F091FB01CF01019660E870E00E94EF0792
:100A50009C018091FC019091FD012817390739F024
:100A6000E658FE4F40833093FB012093FA01FF913B
:100A7000EF91BF91AF919F918F917F916F915F9116
:100A80004F913F912F910F900FBE0F901F9018958F
:100A9000AF92BF92CF92DF92EF92FF920F931F938C
:100AA000CF93DF936C017A018B01DC011496AD903A
:100AB000BC901597CB01BA0122E030E040E050E055
:100AC0000E942408205C3D4B404F5F4FCA01B90192
:100AD000A80197010E942408C901DA010197A10920
:100AE000B109292F3A2F4B2F552747FD5A950196CB
:100AF000A11DB11DE5012883E601EE81FF81815032
:100B00008083EA85FB85208141E050E0CA010E84A4
:100B100002C0880F991F0A94E2F7282B2083EA85E8
:100B2000FB852081CA010F8402C0880F991F0A9497
:100B3000E2F7282B2083EA85FB858081088802C0A4
:100B4000440F551F0A94E2F7842B8083DF91CF91E5
:100B50001F910F91FF90EF90DF90CF90BF90AF90DB
:100B60000895FC01A085B18521898C9190E0022E29
:100B700002C0959587950A94E2F780FFF6CF04842A
:100B8000F585E02D608308958BE591E09093FF015A
:100B90008093FE018AE791E0909301028093000226
:100BA00085EC90E0909303028093020284EC90E045
:100BB000909305028093040280EC90E090930702EA
:100BC0008093060281EC90E09093090280930802E2
:100BD00086EC90E090930B0280930A0284E080936D
:100BE0000C0283E080930D0287E080930E0285E083
:100BF00080930F0208950F931F93CF93DF938C017F
:100C0000EB0109C02196D801ED91FC910190F08192
:100C1000E02DC801099568816623A1F7DF91CF9186
:100C20001F910F910895EF92FF920F931F93CF930F
:100C3000DF938C017B01EA010CC0D7016D917D012E
:100C4000D801ED91FC910190F081E02DC80109954A
:100C50002197209791F7DF91CF911F910F91FF90EE
:100C6000EF900895DC01ED91FC910280F381E02D7D
:100C7000099508950F931F938C01DC01ED91FC9170
:100C80000190F081E02D6DE00995D801ED91FC9186
:100C90000190F081E02DC8016AE009951F910F9144
:100CA00008950F931F938C010E943206C8010E9481
:100CB0003A061F910F9108952F923F924F925F92A3
:100CC0006F927F928F929F92AF92BF92CF92DF925C
:100CD000EF92FF920F931F93DF93CF93CDB7DEB7C1
:100CE000A0970FB6F894DEBF0FBECDBF1C016A01FE
:100CF0007B01411551056105710549F4DC01ED9158
:100D0000FC910190F081E02D60E3099554C08824A6
:100D100099245401422E55246624772401E010E0E2
:100D20000C0F1D1F080D191DC701B601A30192016B
:100D30000E940208F80160830894811C911CA11C88
:100D4000B11CC701B601A30192010E940208C901AA
:100D5000DA016C017D01C114D104E104F104F1F662
:100D600081E0E82EF12CEC0EFD1EE80CF91C3E0192
:100D70000894611C711CD501C4010197A109B10936
:100D80006C01C818D90814C0F601EE0DFF1D608172
:100D90006A3010F4605D01C0695CD101ED91FC9195
:100DA0000190F081E02DC10109950894E108F10856
:100DB0006E147F0449F7A0960FB6F894DEBF0FBEFD
:100DC000CDBFCF91DF911F910F91FF90EF90DF90FA
:100DD000CF90BF90AF909F908F907F906F905F90DB
:100DE0004F903F902F900895EF92FF920F931F9393
:100DF000CF93DF93EC017A018B0177FF0FC0E8817D
:100E0000F9810190F081E02D6DE209951095009532
:100E1000F094E094E11CF11C011D111DCE01B801FC
:100E2000A7012AE00E945C06DF91CF911F910F91EC
:100E3000FF90EF900895AB01662757FD6095762FE0
:100E40000E94F40608951F920F920FB60F9211247C
:100E50002F933F938F939F93AF93BF9380911402EF
:100E600090911502A0911602B091170230911802CC
:100E70000196A11DB11D232F2D5F2D3720F02D5779
:100E80000196A11DB11D2093180280931402909326
:100E90001502A0931602B093170280911002909150
:100EA0001102A0911202B09113020196A11DB11D71
:100EB0008093100290931102A0931202B093130238
:100EC000BF91AF919F918F913F912F910F900FBE46
:100ED0000F901F9018956FB7F89486B590E0A0E03A
:100EE000B0E0A89B08C00097A105B10521F480E0FF
:100EF00091E0A0E0B0E02091100230911102409109
:100F00001202509113026FBF542F432F322F22270A
:100F1000280F391F4A1F5B1F82E0220F331F441F17
:100F2000551F8A95D1F7B901CA010895789484B5FF
:100F3000826084BD84B5816084BD85B5826085BDD5
:100F400085B5816085BDEEE6F0E0808181608083BB
:100F5000E1E8F0E08081826080838081816080832D
:100F6000E0E8F0E0808181608083E1EBF0E0808167
:100F700084608083E0EBF0E0808181608083EAE739
:100F8000F0E08081846080838081826080838081C2
:100F9000816080838081806880831092C100089581
:100FA000629FD001739FF001829FE00DF11D649F4D
:100FB000E00DF11D929FF00D839FF00D749FF00DD9
:100FC000659FF00D9927729FB00DE11DF91F639F7A
:100FD000B00DE11DF91FBD01CF011124089597FB4C
:100FE000092E07260AD077FD04D049D006D000206C
:100FF0001AF4709561957F4F0895F6F79095819555
:101000009F4F0895A1E21A2EAA1BBB1BFD010DC024
:10101000AA1FBB1FEE1FFF1FA217B307E407F507A8
:1010200020F0A21BB30BE40BF50B661F771F881F84
:10103000991F1A9469F760957095809590959B011A
:10104000AC01BD01CF01089597FB092E05260ED0F6
:1010500057FD04D0D7DF0AD0001C38F450954095D6
:10106000309521953F4F4F4F5F4F0895F6F790957C
:101070008095709561957F4F8F4F9F4F0895AA1B64
:10108000BB1B51E107C0AA1FBB1FA617B70710F073
:10109000A61BB70B881F991F5A95A9F780959095A5
:1010A000BC01CD010895EE0FFF1F0590F491E02DD6
:0610B0000994F894FFCF43
:1010B6006368616E6E656C20313A20200020202026
:1010C600202020202000524376616C312072617707
:1010D6003A2020006368616E6E656C20323A2020EB
:1010E60000524376616C32207261773A2020000507
:1010F6000006000400070009000B000C000D0002AA
:101106000003000901F50000000000B105FB05130E
:021116000600D1
:00000001FF
