:100000000C9462000C948A000C948A000C948A0070
:100010000C948A000C948A000C948A000C948A0038
:100020000C948A000C948A000C948A000C948A0028
:100030000C948A000C948A000C948A000C948A0018
:100040000C9435060C948A000C941D040C948A00C0
:100050000C948A000C948A000C948A000C948A00F8
:100060000C948A000C948A000000000024002700F1
:100070002A0000000000250028002B0000000000DE
:1000800023002600290004040404040404040202DA
:100090000202020203030303030301020408102007
:1000A0004080010204081020010204081020000012
:1000B0000007000201000003040600000000000029
:1000C0000000D60411241FBECFEFD4E0DEBFCDBFA9
:1000D00011E0A0E0B1E0E4E8FEE002C005900D927E
:1000E000A236B107D9F712E0A2E6B1E001C01D9235
:1000F000AD30B107E1F710E0C4ECD0E004C02297C6
:10010000FE010E943C07C23CD107C9F70E9486024B
:100110000C9440070C940000AF92BF92CF92DF92F4
:10012000EF92FF920F931F938091530161E020E2C1
:100130003EE440E050E00E948D02709363016093C2
:1001400062018091620190916301892B49F4809151
:10015000640190916501909363018093620108C0EE
:100160008091620190916301909365018093640195
:10017000609162017091630100D000D0882777FD03
:100180008095982F2FEF31E040E050E0EDB7FEB7BB
:10019000218332834383548328EE33E040E050E0F0
:1001A000F0EDEF2EF7E0FF2E012D112DAA24BB2438
:1001B00065010E947B0370936701609366010F9055
:1001C0000F900F900F908091550161E020E23EE486
:1001D00040E050E00E948D027093690160936801D5
:1001E0008091680190916901892B49F480916A019D
:1001F00090916B01909369018093680108C0809190
:1002000068019091690190936B0180936A016091FC
:1002100068017091690100D000D0882777FD809532
:10022000982F2FEF31E040E050E0EDB7FEB721838B
:1002300032834383548328EE33E040E050E0E0ED26
:10024000EE2EE7E0FE2E012D112DAA24BB24650120
:100250000E947B0370936D0160936C018091660135
:10026000909167010F900F900F900F90F1E0853003
:100270009F07E4F080913F0161E00E942E0380918E
:10028000410161E00E942E038091430160E00E94E1
:100290002E036FEF71E08091660190916701681BFA
:1002A000790B809145010E94C4031AC08A3F9105D1
:1002B000DCF480913F0160E00E942E0360916601B2
:1002C00070916701809141010E94C40380914301B4
:1002D00061E00E942E038091450161E00E942E039F
:1002E00080914F0160E017C080914F0161E00E9452
:1002F0002E0380913F0160E00E942E038091410116
:1003000061E00E942E038091430160E00E942E0371
:100310008091450161E00E942E0380916C019091D3
:100320006D0121E085309207E4F08091470161E0A2
:100330000E942E038091490161E00E942E0380916A
:100340004B0160E00E942E036FEF71E080916C0121
:1003500090916D01681B790B80914D010E94C4033F
:100360001AC08A3F9105DCF48091470160E00E9449
:100370002E0360916C0170916D01809149010E9482
:10038000C40380914B0161E00E942E0380914D01D6
:1003900061E00E942E038091510160E017C08091BE
:1003A000510161E00E942E038091470160E00E94AC
:1003B0002E038091490161E00E942E0380914B0140
:1003C00060E00E942E0380914D0161E00E942E03A7
:1003D00082EF91E060E071E00E9444056091660167
:1003E0007091670182EF91E00E942D0682EF91E00B
:1003F0006DE071E00E94440582EF91E066E171E0FA
:100400000E944405609162017091630182EF91E066
:100410000E942D0682EF91E06DE071E00E9444059C
:1004200082EF91E064E271E00E94440560916C010A
:1004300070916D0182EF91E00E942D0682EF91E0B4
:100440006DE071E00E94440582EF91E061E371E0AC
:100450000E944405609168017091690182EF91E00A
:100460000E942D0682EF91E06DE071E00E9463052D
:100470001F910F91FF90EF90DF90CF90BF90AF90C2
:10048000089582EF91E040E855E260E070E00E945C
:100490005A0480913F0161E00E940E038091410166
:1004A00061E00E940E038091430161E00E940E030F
:1004B0008091450161E00E940E038091470161E057
:1004C0000E940E038091490161E00E940E03809119
:1004D0004B0161E00E940E0380914D0161E00E949A
:1004E0000E0380914F0161E00E940E038091510143
:1004F00061E00E940E038091530160E00E940E03B0
:100500008091550160E00E940E0308950E947D06CF
:100510000E9441020E948C00FDCFDF92EF92FF9279
:100520000F931F93A82FB0E0CD0186569F4FFC017B
:10053000D490AA57BF4FFD018491662311F490E037
:1005400001C09D2D6FEFE62E6FEFF62E6FEF062F99
:100550006FE0162FE222F32204231523682F70E0A8
:10056000660F771F64587F4F20E030E040E050E096
:10057000FB01A591B4910AC02E153F054007510714
:1005800009F440C02F5F3F4F4F4F5F4F8C918D213B
:10059000891791F30AC02E153F054007510791F1C5
:1005A0002F5F3F4F4F4F5F4F03C0FB01A591B491A9
:1005B0008C918D21891779F720E030E040E050E000
:1005C000FB01A591B49104C02F5F3F4F4F4F5F4F88
:1005D0008C918D218917C1F3CA01B9012AE030E05D
:1005E00040E050E00E94B7069B01AC01205F3F4F06
:1005F0004F4F5F4F84E056954795379527958A95DD
:10060000D1F704C020E030E040E050E0B901CA0179
:100610001F910F91FF90EF90DF900895282F30E009
:10062000C90186569F4FFC0194912A573F4FF9010B
:100630008491882391F0E82FF0E0EE0FFF1FE85936
:10064000FF4FA591B491662329F48C91909589234D
:100650008C9308958C91892B8C930895482F50E0AA
:10066000CA0182559F4FFC012491CA0186569F4FB3
:10067000FC0194914A575F4FFA0134913323D1F131
:10068000222331F1233021F4809180008F7705C03F
:10069000243031F4809180008F7D8093800018C0D9
:1006A000213019F484B58F7704C0223021F484B549
:1006B0008F7D84BD0DC0263021F48091B0008F77EE
:1006C00005C0273029F48091B0008F7D8093B00061
:1006D000E32FF0E0EE0FFF1FEE58FF4FA591B4910E
:1006E000662329F48C91909589238C9308958C919D
:1006F000892B8C9308952F923F924F925F926F9225
:100700007F928F929F92AF92BF92CF92DF92EF92A1
:10071000FF920F931F93DF93CF93CDB7DEB73B01CB
:100720004C0119012A016D897E898F89988D6A197A
:100730007B098C099D09621A730A840A950AA4012F
:1007400093010E94B706E218F30804091509A801ED
:1007500097010E940B072A0D3B1D4C1D5D1DB90121
:10076000CA01CF91DF911F910F91FF90EF90DF9021
:10077000CF90BF90AF909F908F907F906F905F9041
:100780004F903F902F9008951F93CF93DF93182F92
:10079000EB0161E00E940E03E12FF0E0E255FF4F14
:1007A0008491833051F48091800080688093800030
:1007B000D0938900C09388003CC0843051F480916C
:1007C0008000806280938000D0938B00C0938A0069
:1007D00030C0813039F4209729F184B5806884BD18
:1007E000C7BD27C0823039F42097E1F084B580621C
:1007F00084BDC8BD1EC0863041F48091B0008068C1
:100800008093B000C093B30014C0873041F480914E
:10081000B00080628093B000C093B4000AC0C038BA
:10082000D1051CF4812F60E002C0812F61E00E949D
:100830002E03DF91CF911F9108951F920F920FB653
:100840000F9211242F933F934F935F936F937F9356
:100850008F939F93AF93BF93EF93FF934091C60005
:10086000E091EE01F091EF01CF01019660E870E0B8
:100870000E94D6069C018091F0019091F101281709
:10088000390739F0E259FE4F40833093EF0120934E
:10089000EE01FF91EF91BF91AF919F918F917F9169
:1008A0006F915F914F913F912F910F900FBE0F90DD
:1008B0001F901895AF92BF92CF92DF92EF92FF9266
:1008C0000F931F93CF93DF936C017A018B01DC01AF
:1008D0001496AD90BC901597CB01BA0122E030E0A0
:1008E00040E050E00E940B07205C3D4B404F5F4FC3
:1008F000CA01B901A80197010E940B07C901DA01D9
:100900000197A109B109292F3A2F4B2F552747FDF0
:100910005A950196A11DB11DE5012883E601EE81DE
:10092000FF8181508083EA85FB85208141E050E092
:10093000CA010E8402C0880F991F0A94E2F7282B7F
:100940002083EA85FB852081CA010F8402C0880FBD
:10095000991F0A94E2F7282B2083EA85FB85808182
:10096000088802C0440F551F0A94E2F7842B808345
:10097000DF91CF911F910F91FF90EF90DF90CF907B
:10098000BF90AF900895FC01A085B18521898C911D
:1009900090E0022E02C0959587950A94E2F780FFB9
:1009A000F6CF0484F585E02D608308958BE591E012
:1009B0009093F3018093F2018EE691E09093F5011C
:1009C0008093F40185EC90E09093F7018093F60119
:1009D00084EC90E09093F9018093F80180EC90E032
:1009E0009093FB018093FA0181EC90E09093FD01DC
:1009F0008093FC0186EC90E09093FF018093FE01D0
:100A000084E08093000283E08093010287E080937A
:100A1000020285E08093030208950F931F93CF9302
:100A2000DF938C01EB0109C02196D801ED91FC9177
:100A30000190F081E02DC801099568816623A1F736
:100A4000DF91CF911F910F910895EF92FF920F9335
:100A50001F93CF93DF938C017B01EA010CC0D70178
:100A60006D917D01D801ED91FC910190F081E02D17
:100A7000C80109952197209791F7DF91CF911F9198
:100A80000F91FF90EF900895DC01ED91FC910280B1
:100A9000F381E02D099508950F931F938C01DC01DC
:100AA000ED91FC910190F081E02D6DE00995D80168
:100AB000ED91FC910190F081E02DC8016AE009956B
:100AC0001F910F9108950F931F938C010E9444056D
:100AD000C8010E944C051F910F9108952F923F92DB
:100AE0004F925F926F927F928F929F92AF92BF923E
:100AF000CF92DF92EF92FF920F931F93DF93CF93EA
:100B0000CDB7DEB7A0970FB6F894DEBF0FBECDBF4E
:100B10001C016A017B01411551056105710549F40C
:100B2000DC01ED91FC910190F081E02D60E30995ED
:100B300054C0882499245401422E552466247724D5
:100B400001E010E00C0F1D1F080D191DC701B601B3
:100B5000A30192010E94E906F80160830894811CB8
:100B6000911CA11CB11CC701B601A30192010E94F6
:100B7000E906C901DA016C017D01C114D104E10467
:100B8000F104F1F681E0E82EF12CEC0EFD1EE80CEC
:100B9000F91C3E010894611C711CD501C401019728
:100BA000A109B1096C01C818D90814C0F601EE0DED
:100BB000FF1D60816A3010F4605D01C0695CD10185
:100BC000ED91FC910190F081E02DC101099508940F
:100BD000E108F1086E147F0449F7A0960FB6F89467
:100BE000DEBF0FBECDBFCF91DF911F910F91FF9060
:100BF000EF90DF90CF90BF90AF909F908F907F90BD
:100C00006F905F904F903F902F900895EF92FF92DA
:100C10000F931F93CF93DF93EC017A018B0177FF42
:100C20000FC0E881F9810190F081E02D6DE2099516
:100C300010950095F094E094E11CF11C011D111D2C
:100C4000CE01B801A7012AE00E946E05DF91CF9185
:100C50001F910F91FF90EF900895AB01662757FD0C
:100C60006095762F0E94060608951F920F920FB688
:100C70000F9211242F933F938F939F93AF93BF9322
:100C80008091080290910902A0910A02B0910B0292
:100C900030910C020196A11DB11D232F2D5F2D3720
:100CA00020F02D570196A11DB11D20930C028093B9
:100CB000080290930902A0930A02B0930B0280915C
:100CC000040290910502A0910602B09107020196DC
:100CD000A11DB11D8093040290930502A09306020A
:100CE000B0930702BF91AF919F918F913F912F9148
:100CF0000F900FBE0F901F901895789484B5826066
:100D000084BD84B5816084BD85B5826085BD85B5AF
:100D1000816085BDEEE6F0E0808181608083E1E85E
:100D2000F0E0808182608083808181608083E0E860
:100D3000F0E0808181608083E1EBF0E0808184607D
:100D40008083E0EBF0E0808181608083EAE7F0E07F
:100D500080818460808380818260808380818160E3
:100D600080838081806880831092C1000895629F93
:100D7000D001739FF001829FE00DF11D649FE00D93
:100D8000F11D929FF00D839FF00D749FF00D659FF4
:100D9000F00D9927729FB00DE11DF91F639FB00DF3
:100DA000E11DF91FBD01CF011124089597FB092E04
:100DB00007260AD077FD04D049D006D000201AF4C7
:100DC000709561957F4F0895F6F7909581959F4FA7
:100DD0000895A1E21A2EAA1BBB1BFD010DC0AA1F7C
:100DE000BB1FEE1FFF1FA217B307E407F50720F094
:100DF000A21BB30BE40BF50B661F771F881F991F0F
:100E00001A9469F760957095809590959B01AC0157
:100E1000BD01CF01089597FB092E05260ED057FD81
:100E200004D0D7DF0AD0001C38F450954095309597
:100E300021953F4F4F4F5F4F0895F6F7909580955E
:100E4000709561957F4F8F4F9F4F0895AA1BBB1BD5
:100E500051E107C0AA1FBB1FA617B70710F0A61BBA
:100E6000B70B881F991F5A95A9F780959095BC01DB
:100E7000CD010895EE0FFF1F0590F491E02D099428
:040E8000F894FFCF14
:100E84006368616E6E656C20313A2020002020205A
:100E9400202020202000524376616C31207261773B
:100EA4003A2020006368616E6E656C20323A20201F
:100EB40000524376616C32207261773A202000043C
:100EC40000050007000600080009000A000B000CDA
:100ED400000D000200030000000000C3040D0525FE
:020EE400050007
:00000001FF
