:100000000C9462000C94AD030C94DA030C948A00F7
:100010000C948A000C948A000C948A000C948A0038
:100020000C948A000C948A000C948A000C948A0028
:100030000C948A000C948A000C948A000C948A0018
:100040000C9478060C948A000C9460040C948A003A
:100050000C948A000C948A000C948A000C948A00F8
:100060000C948A000C948A000000000024002700F1
:100070002A0000000000250028002B0000000000DE
:1000800023002600290004040404040404040202DA
:100090000202020203030303030301020408102007
:1000A0004080010204081020010204081020000012
:1000B0000007000201000003040600000000000029
:1000C0000000190511241FBECFEFD4E0DEBFCDBF65
:1000D00011E0A0E0B1E0E0E6FFE002C005900D9283
:1000E000AA35B107D9F712E0AAE5B1E001C01D9227
:1000F000AD30B107E1F710E0C4ECD0E004C02297C6
:10010000FE010E94AA07C23CD107C9F70E947E02E5
:100110000C94AE070C940000AF92BF92CF92DF9286
:10012000EF92FF920F931F9380916401909165016C
:10013000892B09F482C010926501109264018091AC
:100140005A0190915B01885E93402CF428EE33E0D5
:1001500040E050E015C080915A0190915B01815DB3
:1001600097402CF020ED37E040E050E009C080914E
:100170005A0190915B019C01442737FD4095542F13
:1001800000D000D08FEF91E0A0E0B0E0EDB7FEB777
:1001900081839283A383B483CA01B90128EE33E03B
:1001A00040E050E0F0EDEF2EF7E0FF2E012D112D95
:1001B000AA24BB2465010E9441039B0170935D0149
:1001C00060935C010F900F900F900F90F1E06530FD
:1001D0007F076CF02450314080913F01B9010E94AB
:1001E00007048091410160E00E94A50214C06A3FAB
:1001F0007105A4F480913F0160E00E94A5026AEFBE
:1002000070E080915C0190915D01681B790B809199
:1002100041010E940704809147010CC08091470171
:1002200061E00E94A50280913F0160E00E94A5026A
:100230008091410160E00E94A50280916801909147
:100240006901892B09F482C010926901109268013A
:1002500080915E0190915F01885E93402CF428EEBE
:1002600033E040E050E015C080915E0190915F0165
:10027000815D97402CF020ED37E040E050E009C070
:1002800080915E0190915F019C01442737FD40956C
:10029000542F00D000D08FEF91E0A0E0B0E0EDB798
:1002A000FEB781839283A383B483CA01B90128EE88
:1002B00033E040E050E0E0EDEE2EE7E0FE2E012DD1
:1002C000112DAA24BB2465010E9441039B01709358
:1002D0006101609360010F900F900F900F90F1E01B
:1002E00065307F076CF02450314080914301B901A3
:1002F0000E9407048091450160E00E94A50214C09D
:100300006A3F7105A4F48091430160E00E94A50258
:100310006AEF70E08091600190916101681B790B38
:10032000809145010E940704809149010CC0809191
:10033000490161E00E94A5028091430160E00E94B2
:10034000A5028091450160E00E94A50282EF91E044
:1003500060E071E00E94870560915C0170915D0131
:1003600082EF91E00E94700682EF91E06DE071E013
:100370000E94870582EF91E066E171E00E948705A7
:1003800060915A0170915B0182EF91E00E947006CA
:1003900082EF91E06DE071E00E94870582EF91E0CD
:1003A00064E271E00E9487056091600170916101D3
:1003B00082EF91E00E94700682EF91E06DE071E0C3
:1003C0000E94870582EF91E061E371E00E9487055A
:1003D00060915E0170915F0182EF91E00E94700672
:1003E00082EF91E06DE071E00E94A6051F910F91F0
:1003F000FF90EF90DF90CF90BF90AF9008958091E5
:100400004D010E94F202019739F40E94C0067093D8
:1004100067016093660108950E94C00620916601FD
:1004200030916701621B730B70935F0160935E01F3
:1004300081E090E090936901809368010895809134
:100440004B010E94F202019739F40E94C00670939A
:1004500063016093620108950E94C00620916201C9
:1004600030916301621B730B70935B0160935A01BF
:1004700081E090E09093650180936401089582EF9C
:1004800091E040E855E260E070E00E949D048091B8
:100490003F0161E00E9485028091410161E00E947C
:1004A00085028091430161E00E94850280914501AF
:1004B00061E00E9485028091470161E00E9485020F
:1004C0008091490161E00E94850280914B0160E0CA
:1004D0000E94850280914D0160E00E94850280E0CB
:1004E0006FE172E041E050E00E948A0381E06FEF2B
:1004F00071E041E050E00E948A0308950E94EB06FB
:100500000E943F020E948C00FDCF282F30E0C901DD
:1005100086569F4FFC0194912A573F4FF9018491D1
:10052000882391F0E82FF0E0EE0FFF1FE859FF4F0E
:10053000A591B491662329F48C91909589238C938D
:1005400008958C91892B8C930895482F50E0CA010F
:1005500082559F4FFC012491CA0186569F4FFC0192
:1005600094914A575F4FFA0134913323D1F12223FA
:1005700031F1233021F4809180008F7705C0243041
:1005800031F4809180008F7D8093800018C02130ED
:1005900019F484B58F7704C0223021F484B58F7D9F
:1005A00084BD0DC0263021F48091B0008F7705C046
:1005B000273029F48091B0008F7D8093B000E32F25
:1005C000F0E0EE0FFF1FEE58FF4FA591B4916623A8
:1005D00029F48C91909589238C9308958C91892B83
:1005E0008C930895682F70E0CB0182559F4FFC01DA
:1005F0002491CB0186569F4FFC0144916A577F4F4F
:10060000FB019491992319F420E030E038C02223B3
:1006100031F1233021F4809180008F7705C02430A0
:1006200031F4809180008F7D8093800018C021304C
:1006300019F484B58F7704C0223021F484B58F7DFE
:1006400084BD0DC0263021F48091B0008F7705C0A5
:10065000273029F48091B0008F7D8093B000892FDE
:1006600090E0880F991F84589F4FFC01A591B49189
:100670008C9120E030E0842311F021E030E0C901CA
:1006800008952F923F924F925F926F927F928F9236
:100690009F92AF92BF92CF92DF92EF92FF920F9311
:1006A0001F93DF93CF93CDB7DEB73B014C01190108
:1006B0002A016D897E898F89988D6A197B098C0939
:1006C0009D09621A730A840A950AA40193010E9483
:1006D0002507E218F30804091509A80197010E94EB
:1006E00079072A0D3B1D4C1D5D1DB901CA01CF9133
:1006F000DF911F910F91FF90EF90DF90CF90BF900F
:10070000AF909F908F907F906F905F904F903F90B1
:100710002F900895823000F5E82FF0E0EE0FFF1FD4
:10072000E659FE4F71836083882319F08130A1F46C
:1007300008C0809169008C7F842B80936900E89ABF
:10074000089580916900440F551F440F551F837F02
:10075000842B80936900E99A08951F920F920FB637
:100760000F9211242F933F934F935F936F937F9337
:100770008F939F93AF93BF93EF93FF9380916A0101
:1007800090916B01892B29F0E0916A01F0916B0146
:100790000995FF91EF91BF91AF919F918F917F91BB
:1007A0006F915F914F913F912F910F900FBE0F90DE
:1007B0001F9018951F920F920FB60F9211242F932E
:1007C0003F934F935F936F937F938F939F93AF93D9
:1007D000BF93EF93FF9380916C0190916D01892BF2
:1007E00029F0E0916C01F0916D010995FF91EF9175
:1007F000BF91AF919F918F917F916F915F914F9139
:100800003F912F910F900FBE0F901F9018951F933F
:10081000CF93DF93182FEB0161E00E948502E12F57
:10082000F0E0E255FF4F8491833051F480918000D5
:10083000806880938000D0938900C09388003CC07A
:10084000843051F480918000806280938000D09346
:100850008B00C0938A0030C0813039F4209729F191
:1008600084B5806884BDC7BD27C0823039F4209725
:10087000E1F084B5806284BDC8BD1EC0863041F4FD
:100880008091B00080688093B000C093B30014C022
:10089000873041F48091B00080628093B000C093B3
:1008A000B4000AC0C038D1051CF4812F60E002C03A
:1008B000812F61E00E94A502DF91CF911F910895E1
:1008C0001F920F920FB60F9211242F933F934F93C5
:1008D0005F936F937F938F939F93AF93BF93EF93A8
:1008E000FF934091C600E091EE01F091EF01CF013E
:1008F000019660E870E00E9444079C018091F0013D
:100900009091F1012817390739F0E259FE4F4083E1
:100910003093EF012093EE01FF91EF91BF91AF91E2
:100920009F918F917F916F915F914F913F912F9107
:100930000F900FBE0F901F901895AF92BF92CF925D
:10094000DF92EF92FF920F931F93CF93DF936C018F
:100950007A018B01DC011496AD90BC901597CB0108
:10096000BA0122E030E040E050E00E947907205CCC
:100970003D4B404F5F4FCA01B901A80197010E944A
:100980007907C901DA010197A109B109292F3A2F85
:100990004B2F552747FD5A950196A11DB11DE50125
:1009A0002883E601EE81FF8181508083EA85FB8503
:1009B000208141E050E0CA010E8402C0880F991FD7
:1009C0000A94E2F7282B2083EA85FB852081CA015F
:1009D0000F8402C0880F991F0A94E2F7282B208306
:1009E000EA85FB858081088802C0440F551F0A9460
:1009F000E2F7842B8083DF91CF911F910F91FF90BD
:100A0000EF90DF90CF90BF90AF900895FC01A0854C
:100A1000B18521898C9190E0022E02C09595879531
:100A20000A94E2F780FFF6CF0484F585E02D608319
:100A3000089583E591E09093F3018093F2018EE6AF
:100A400091E09093F5018093F40185EC90E0909310
:100A5000F7018093F60184EC90E09093F901809384
:100A6000F80180EC90E09093FB018093FA0181EC17
:100A700090E09093FD018093FC0186EC90E09093D0
:100A8000FF018093FE0184E08093000283E0809365
:100A9000010287E08093020285E0809303020895BB
:100AA0000F931F93CF93DF938C01EB0109C0219625
:100AB000D801ED91FC910190F081E02DC8010995DC
:100AC00068816623A1F7DF91CF911F910F9108955F
:100AD000EF92FF920F931F93CF93DF938C017B01D3
:100AE000EA010CC0D7016D917D01D801ED91FC9117
:100AF0000190F081E02DC80109952197209791F789
:100B0000DF91CF911F910F91FF90EF900895DC013D
:100B1000ED91FC910280F381E02D099508950F93EA
:100B20001F938C01DC01ED91FC910190F081E02D8F
:100B30006DE00995D801ED91FC910190F081E02DD7
:100B4000C8016AE009951F910F9108950F931F93B3
:100B50008C010E948705C8010E948F051F910F918B
:100B600008952F923F924F925F926F927F928F9251
:100B70009F92AF92BF92CF92DF92EF92FF920F932C
:100B80001F93DF93CF93CDB7DEB7A0970FB6F8943E
:100B9000DEBF0FBECDBF1C016A017B0141155105AF
:100BA0006105710549F4DC01ED91FC910190F08142
:100BB000E02D60E3099554C0882499245401422E05
:100BC00055246624772401E010E00C0F1D1F080D4A
:100BD000191DC701B601A30192010E945707F80130
:100BE00060830894811C911CA11CB11CC701B60133
:100BF000A30192010E945707C901DA016C017D012E
:100C0000C114D104E104F104F1F681E0E82EF12CE5
:100C1000EC0EFD1EE80CF91C3E010894611C711CD1
:100C2000D501C4010197A109B1096C01C818D908FF
:100C300014C0F601EE0DFF1D60816A3010F4605D96
:100C400001C0695CD101ED91FC910190F081E02D32
:100C5000C10109950894E108F1086E147F0449F771
:100C6000A0960FB6F894DEBF0FBECDBFCF91DF9137
:100C70001F910F91FF90EF90DF90CF90BF90AF90BA
:100C80009F908F907F906F905F904F903F902F90AC
:100C90000895EF92FF920F931F93CF93DF93EC0190
:100CA0007A018B0177FF0FC0E881F9810190F08113
:100CB000E02D6DE2099510950095F094E094E11C0B
:100CC000F11C011D111DCE01B801A7012AE00E94EF
:100CD000B105DF91CF911F910F91FF90EF90089593
:100CE000AB01662757FD6095762F0E94490608954F
:100CF0001F920F920FB60F9211242F933F938F9351
:100D00009F93AF93BF938091080290910902A091A5
:100D10000A02B0910B0230910C020196A11DB11D87
:100D2000232F2D5F2D3720F02D570196A11DB11DCA
:100D300020930C028093080290930902A0930A0268
:100D4000B0930B028091040290910502A0910602DB
:100D5000B09107020196A11DB11D809304029093EA
:100D60000502A0930602B0930702BF91AF919F9135
:100D70008F913F912F910F900FBE0F901F9018955C
:100D80006FB7F89486B590E0A0E0B0E0A89B08C0EB
:100D90000097A105B10521F480E091E0A0E0B0E06A
:100DA0002091040230910502409106025091070201
:100DB0006FBF542F432F322F2227280F391F4A1F6E
:100DC0005B1F82E0220F331F441F551F8A95D1F706
:100DD000B901CA010895789484B5826084BD84B550
:100DE000816084BD85B5826085BD85B5816085BD26
:100DF000EEE6F0E0808181608083E1E8F0E08081D0
:100E000082608083808181608083E0E8F0E080817F
:100E100081608083E1EBF0E0808184608083E0EB9F
:100E2000F0E0808181608083EAE7F0E08081846087
:100E300080838081826080838081816080838081E3
:100E4000806880831092C1000895629FD001739FD3
:100E5000F001829FE00DF11D649FE00DF11D929F56
:100E6000F00D839FF00D749FF00D659FF00D992795
:100E7000729FB00DE11DF91F639FB00DE11DF91FB9
:100E8000BD01CF011124089597FB092E07260AD032
:100E900077FD04D049D006D000201AF470956195F2
:100EA0007F4F0895F6F7909581959F4F0895A1E2A1
:100EB0001A2EAA1BBB1BFD010DC0AA1FBB1FEE1FD4
:100EC000FF1FA217B307E407F50720F0A21BB30B1F
:100ED000E40BF50B661F771F881F991F1A9469F79B
:100EE00060957095809590959B01AC01BD01CF01F7
:100EF000089597FB092E05260ED057FD04D0D7DFA5
:100F00000AD0001C38F450954095309521953F4FFC
:100F10004F4F5F4F0895F6F79095809570956195C6
:100F20007F4F8F4F9F4F0895AA1BBB1B51E107C0F6
:100F3000AA1FBB1FA617B70710F0A61BB70B881F69
:100F4000991F5A95A9F780959095BC01CD010895F8
:100F5000EE0FFF1F0590F491E02D0994F894FFCF58
:100F60006368616E6E656C20313A2020002020207D
:100F7000202020202000524376616C31207261775E
:100F80003A2020006368616E6E656C20323A202042
:100F900000524376616C32207261773A202000055E
:100FA00000060009000B000D000C00020003000009
:0A0FB000000000060550056805006A
:00000001FF
